{
  "_format": "hh-sol-artifact-1",
  "contractName": "HighStakesONE",
  "sourceName": "contracts/HSOne.sol",
  "abi": [
    {
      "inputs": [
        {
          "internalType": "address",
          "name": "_sweepStakesNFTs",
          "type": "address"
        }
      ],
      "stateMutability": "nonpayable",
      "type": "constructor"
    },
    {
      "anonymous": false,
      "inputs": [
        {
          "indexed": true,
          "internalType": "address",
          "name": "owner",
          "type": "address"
        },
        {
          "indexed": true,
          "internalType": "address",
          "name": "spender",
          "type": "address"
        },
        {
          "indexed": false,
          "internalType": "uint256",
          "name": "value",
          "type": "uint256"
        }
      ],
      "name": "Approval",
      "type": "event"
    },
    {
      "anonymous": false,
      "inputs": [
        {
          "indexed": false,
          "internalType": "address",
          "name": "account",
          "type": "address"
        }
      ],
      "name": "Paused",
      "type": "event"
    },
    {
      "anonymous": false,
      "inputs": [
        {
          "indexed": true,
          "internalType": "uint256",
          "name": "_tokenId",
          "type": "uint256"
        },
        {
          "indexed": false,
          "internalType": "uint256",
          "name": "_price",
          "type": "uint256"
        }
      ],
      "name": "StakeNFT",
      "type": "event"
    },
    {
      "anonymous": false,
      "inputs": [
        {
          "indexed": true,
          "internalType": "address",
          "name": "from",
          "type": "address"
        },
        {
          "indexed": true,
          "internalType": "address",
          "name": "to",
          "type": "address"
        },
        {
          "indexed": false,
          "internalType": "uint256",
          "name": "value",
          "type": "uint256"
        }
      ],
      "name": "Transfer",
      "type": "event"
    },
    {
      "anonymous": false,
      "inputs": [
        {
          "indexed": false,
          "internalType": "address",
          "name": "account",
          "type": "address"
        }
      ],
      "name": "Unpaused",
      "type": "event"
    },
    {
      "anonymous": false,
      "inputs": [
        {
          "indexed": true,
          "internalType": "uint256",
          "name": "_tokenId",
          "type": "uint256"
        },
        {
          "indexed": false,
          "internalType": "uint256",
          "name": "_price",
          "type": "uint256"
        }
      ],
      "name": "UnstakeNFT",
      "type": "event"
    },
    {
      "inputs": [],
      "name": "FEE_DENOMINATOR",
      "outputs": [
        {
          "internalType": "uint256",
          "name": "",
          "type": "uint256"
        }
      ],
      "stateMutability": "view",
      "type": "function"
    },
    {
      "inputs": [
        {
          "internalType": "address",
          "name": "owner",
          "type": "address"
        },
        {
          "internalType": "address",
          "name": "spender",
          "type": "address"
        }
      ],
      "name": "allowance",
      "outputs": [
        {
          "internalType": "uint256",
          "name": "",
          "type": "uint256"
        }
      ],
      "stateMutability": "view",
      "type": "function"
    },
    {
      "inputs": [
        {
          "internalType": "address",
          "name": "spender",
          "type": "address"
        },
        {
          "internalType": "uint256",
          "name": "amount",
          "type": "uint256"
        }
      ],
      "name": "approve",
      "outputs": [
        {
          "internalType": "bool",
          "name": "",
          "type": "bool"
        }
      ],
      "stateMutability": "nonpayable",
      "type": "function"
    },
    {
      "inputs": [
        {
          "internalType": "address",
          "name": "account",
          "type": "address"
        }
      ],
      "name": "balanceOf",
      "outputs": [
        {
          "internalType": "uint256",
          "name": "",
          "type": "uint256"
        }
      ],
      "stateMutability": "view",
      "type": "function"
    },
    {
      "inputs": [],
      "name": "beneficiary",
      "outputs": [
        {
          "internalType": "address",
          "name": "",
          "type": "address"
        }
      ],
      "stateMutability": "view",
      "type": "function"
    },
    {
      "inputs": [],
      "name": "decimals",
      "outputs": [
        {
          "internalType": "uint8",
          "name": "",
          "type": "uint8"
        }
      ],
      "stateMutability": "view",
      "type": "function"
    },
    {
      "inputs": [
        {
          "internalType": "address",
          "name": "spender",
          "type": "address"
        },
        {
          "internalType": "uint256",
          "name": "subtractedValue",
          "type": "uint256"
        }
      ],
      "name": "decreaseAllowance",
      "outputs": [
        {
          "internalType": "bool",
          "name": "",
          "type": "bool"
        }
      ],
      "stateMutability": "nonpayable",
      "type": "function"
    },
    {
      "inputs": [],
      "name": "fee",
      "outputs": [
        {
          "internalType": "uint256",
          "name": "",
          "type": "uint256"
        }
      ],
      "stateMutability": "view",
      "type": "function"
    },
    {
      "inputs": [
        {
          "internalType": "uint256",
          "name": "_tokenId",
          "type": "uint256"
        }
      ],
      "name": "getNFTPrice",
      "outputs": [
        {
          "internalType": "uint256",
          "name": "",
          "type": "uint256"
        }
      ],
      "stateMutability": "view",
      "type": "function"
    },
    {
      "inputs": [
        {
          "internalType": "address",
          "name": "spender",
          "type": "address"
        },
        {
          "internalType": "uint256",
          "name": "addedValue",
          "type": "uint256"
        }
      ],
      "name": "increaseAllowance",
      "outputs": [
        {
          "internalType": "bool",
          "name": "",
          "type": "bool"
        }
      ],
      "stateMutability": "nonpayable",
      "type": "function"
    },
    {
      "inputs": [],
      "name": "name",
      "outputs": [
        {
          "internalType": "string",
          "name": "",
          "type": "string"
        }
      ],
      "stateMutability": "view",
      "type": "function"
    },
    {
      "inputs": [],
      "name": "owner",
      "outputs": [
        {
          "internalType": "address",
          "name": "",
          "type": "address"
        }
      ],
      "stateMutability": "view",
      "type": "function"
    },
    {
      "inputs": [],
      "name": "pause",
      "outputs": [],
      "stateMutability": "nonpayable",
      "type": "function"
    },
    {
      "inputs": [],
      "name": "paused",
      "outputs": [
        {
          "internalType": "bool",
          "name": "",
          "type": "bool"
        }
      ],
      "stateMutability": "view",
      "type": "function"
    },
    {
      "inputs": [
        {
          "internalType": "address",
          "name": "_beneficiary",
          "type": "address"
        }
      ],
      "name": "setBeneficiary",
      "outputs": [],
      "stateMutability": "nonpayable",
      "type": "function"
    },
    {
      "inputs": [
        {
          "internalType": "uint256",
          "name": "_fee",
          "type": "uint256"
        }
      ],
      "name": "setFee",
      "outputs": [],
      "stateMutability": "nonpayable",
      "type": "function"
    },
    {
      "inputs": [
        {
          "internalType": "address",
          "name": "_owner",
          "type": "address"
        }
      ],
      "name": "setOwner",
      "outputs": [],
      "stateMutability": "nonpayable",
      "type": "function"
    },
    {
      "inputs": [
        {
          "internalType": "address",
          "name": "_sweepStakesNFTs",
          "type": "address"
        }
      ],
      "name": "setSweepStakesNFTs",
      "outputs": [],
      "stateMutability": "nonpayable",
      "type": "function"
    },
    {
      "inputs": [
        {
          "internalType": "uint256",
          "name": "_tokenId",
          "type": "uint256"
        }
      ],
      "name": "stakeNFT",
      "outputs": [],
      "stateMutability": "nonpayable",
      "type": "function"
    },
    {
      "inputs": [
        {
          "internalType": "uint256",
          "name": "",
          "type": "uint256"
        }
      ],
      "name": "stakedNFTsToPrice",
      "outputs": [
        {
          "internalType": "uint256",
          "name": "",
          "type": "uint256"
        }
      ],
      "stateMutability": "view",
      "type": "function"
    },
    {
      "inputs": [],
      "name": "sweepStakesNFTs",
      "outputs": [
        {
          "internalType": "address",
          "name": "",
          "type": "address"
        }
      ],
      "stateMutability": "view",
      "type": "function"
    },
    {
      "inputs": [],
      "name": "symbol",
      "outputs": [
        {
          "internalType": "string",
          "name": "",
          "type": "string"
        }
      ],
      "stateMutability": "view",
      "type": "function"
    },
    {
      "inputs": [],
      "name": "totalSupply",
      "outputs": [
        {
          "internalType": "uint256",
          "name": "",
          "type": "uint256"
        }
      ],
      "stateMutability": "view",
      "type": "function"
    },
    {
      "inputs": [
        {
          "internalType": "address",
          "name": "to",
          "type": "address"
        },
        {
          "internalType": "uint256",
          "name": "amount",
          "type": "uint256"
        }
      ],
      "name": "transfer",
      "outputs": [
        {
          "internalType": "bool",
          "name": "",
          "type": "bool"
        }
      ],
      "stateMutability": "nonpayable",
      "type": "function"
    },
    {
      "inputs": [
        {
          "internalType": "address",
          "name": "from",
          "type": "address"
        },
        {
          "internalType": "address",
          "name": "to",
          "type": "address"
        },
        {
          "internalType": "uint256",
          "name": "amount",
          "type": "uint256"
        }
      ],
      "name": "transferFrom",
      "outputs": [
        {
          "internalType": "bool",
          "name": "",
          "type": "bool"
        }
      ],
      "stateMutability": "nonpayable",
      "type": "function"
    },
    {
      "inputs": [],
      "name": "unpause",
      "outputs": [],
      "stateMutability": "nonpayable",
      "type": "function"
    },
    {
      "inputs": [
        {
          "internalType": "uint256",
          "name": "_tokenId",
          "type": "uint256"
        }
      ],
      "name": "unstakeNFT",
      "outputs": [],
      "stateMutability": "nonpayable",
      "type": "function"
    }
  ],
  "bytecode": "0x6080604052601e6008553480156200001657600080fd5b50604051620015c1380380620015c18339810160408190526200003991620000f1565b6040518060400160405280600f81526020016e48696768205374616b6573204f4e4560881b8152506040518060400160405280600581526020016448534f4e4560d81b8152508160039081620000909190620001c8565b5060046200009f8282620001c8565b5050600580546001600160a01b03909316610100026001600160a81b03199093169290921790915550600780546001600160a01b03199081163390811790925560098054909116909117905562000294565b6000602082840312156200010457600080fd5b81516001600160a01b03811681146200011c57600080fd5b9392505050565b634e487b7160e01b600052604160045260246000fd5b600181811c908216806200014e57607f821691505b6020821081036200016f57634e487b7160e01b600052602260045260246000fd5b50919050565b601f821115620001c357600081815260208120601f850160051c810160208610156200019e5750805b601f850160051c820191505b81811015620001bf57828155600101620001aa565b5050505b505050565b81516001600160401b03811115620001e457620001e462000123565b620001fc81620001f5845462000139565b8462000175565b602080601f8311600181146200023457600084156200021b5750858301515b600019600386901b1c1916600185901b178555620001bf565b600085815260208120601f198616915b82811015620002655788860151825594840194600190910190840162000244565b5085821015620002845787850151600019600388901b60f8161c191681555b5050505050600190811b01905550565b61131d80620002a46000396000f3fe608060405234801561001057600080fd5b50600436106101495760003560e01c806306fdde031461014e578063095ea7b31461016c57806313af40351461018f57806318160ddd146101a45780631c31f710146101b657806323b872dd146101c9578063313ce567146101dc57806338af3eed146101eb578063395093511461020b5780633f4ba83a1461021e578063408829eb146102265780635c975abb1461023957806369fe0e2d146102445780636eb604e01461025757806370a082311461026a5780638456cb59146102935780638da5cb5b1461029b57806392976179146102ae57806395d89b41146102ce578063a457c2d7146102d6578063a9059cbb146102e9578063b6ca850e146102fc578063c1dfa0bb14610314578063cf37c10414610327578063d73792a914610347578063dd62ed3e14610350578063ddca3f4314610363575b600080fd5b61015661036c565b6040516101639190611065565b60405180910390f35b61017f61017a3660046110cf565b6103fe565b6040519015158152602001610163565b6101a261019d3660046110f9565b610418565b005b6002545b604051908152602001610163565b6101a26101c43660046110f9565b61046d565b61017f6101d736600461111b565b6104b9565b60405160128152602001610163565b6009546101fe906001600160a01b031681565b6040516101639190611157565b61017f6102193660046110cf565b6104dd565b6101a26104ff565b6101a26102343660046110f9565b610533565b60055460ff1661017f565b6101a261025236600461116b565b610585565b6101a261026536600461116b565b6105b4565b6101a86102783660046110f9565b6001600160a01b031660009081526020819052604090205490565b6101a26107c3565b6007546101fe906001600160a01b031681565b6101a86102bc36600461116b565b60009081526006602052604090205490565b6101566107f5565b61017f6102e43660046110cf565b610804565b61017f6102f73660046110cf565b61087f565b6005546101fe9061010090046001600160a01b031681565b6101a261032236600461116b565b61088d565b6101a861033536600461116b565b60066020526000908152604090205481565b6101a861271081565b6101a861035e366004611184565b61099e565b6101a860085481565b60606003805461037b906111b7565b80601f01602080910402602001604051908101604052809291908181526020018280546103a7906111b7565b80156103f45780601f106103c9576101008083540402835291602001916103f4565b820191906000526020600020905b8154815290600101906020018083116103d757829003601f168201915b5050505050905090565b60003361040c8185856109c9565b60019150505b92915050565b6007546001600160a01b0316331461044b5760405162461bcd60e51b8152600401610442906111f1565b60405180910390fd5b600780546001600160a01b0319166001600160a01b0392909216919091179055565b6007546001600160a01b031633146104975760405162461bcd60e51b8152600401610442906111f1565b600980546001600160a01b0319166001600160a01b0392909216919091179055565b6000336104c7858285610aee565b6104d2858585610b68565b506001949350505050565b60003361040c8185856104f0838361099e565b6104fa919061122b565b6109c9565b6007546001600160a01b031633146105295760405162461bcd60e51b8152600401610442906111f1565b610531610d05565b565b6007546001600160a01b0316331461055d5760405162461bcd60e51b8152600401610442906111f1565b600580546001600160a01b0390921661010002610100600160a81b0319909216919091179055565b6007546001600160a01b031633146105af5760405162461bcd60e51b8152600401610442906111f1565b600855565b60055460405163f5962e2d60e01b81526004810183905260009161010090046001600160a01b03169063f5962e2d90602401602060405180830381865afa158015610603573d6000803e3d6000fd5b505050506040513d601f19601f82011682018060405250810190610627919061123e565b6000838152600660205260409020549091501561067e5760405162461bcd60e51b8152602060048201526015602482015274139195081a5cc8185b1c9958591e481cdd185ad959605a1b6044820152606401610442565b600081116106c15760405162461bcd60e51b815260206004820152601060248201526f4e465420686173206e6f2076616c756560801b6044820152606401610442565b6000612710600854836106d49190611257565b6106de919061126e565b6005546040516323b872dd60e01b815291925061010090046001600160a01b0316906323b872dd9061071890339030908890600401611290565b600060405180830381600087803b15801561073257600080fd5b505af1158015610746573d6000803e3d6000fd5b50505060008481526006602052604090208390555061076e3361076983856112b4565b610d51565b600954610784906001600160a01b031682610d51565b827f56e8c38941577bf616df674dab11f30a39be37b997cbcb6be5ee4148c7043d55836040516107b691815260200190565b60405180910390a2505050565b6007546001600160a01b031633146107ed5760405162461bcd60e51b8152600401610442906111f1565b610531610e0a565b60606004805461037b906111b7565b60003381610812828661099e565b9050838110156108725760405162461bcd60e51b815260206004820152602560248201527f45524332303a2064656372656173656420616c6c6f77616e63652062656c6f77604482015264207a65726f60d81b6064820152608401610442565b6104d282868684036109c9565b60003361040c818585610b68565b600081815260066020526040902054806108dd5760405162461bcd60e51b8152602060048201526011602482015270139195081a5cc81b9bdd081cdd185ad959607a1b6044820152606401610442565b6000828152600660205260408120556108f63382610e47565b600554604051632142170760e11b81526101009091046001600160a01b0316906342842e0e9061092e90309033908790600401611290565b600060405180830381600087803b15801561094857600080fd5b505af115801561095c573d6000803e3d6000fd5b50505050817f836c4c9aaeed52860a45ebb1e7109b80a2bd8060830876e23c5bd90c1db2f44c8260405161099291815260200190565b60405180910390a25050565b6001600160a01b03918216600090815260016020908152604080832093909416825291909152205490565b6001600160a01b038316610a2b5760405162461bcd60e51b8152602060048201526024808201527f45524332303a20617070726f76652066726f6d20746865207a65726f206164646044820152637265737360e01b6064820152608401610442565b6001600160a01b038216610a8c5760405162461bcd60e51b815260206004820152602260248201527f45524332303a20617070726f766520746f20746865207a65726f206164647265604482015261737360f01b6064820152608401610442565b6001600160a01b0383811660008181526001602090815260408083209487168084529482529182902085905590518481527f8c5be1e5ebec7d5bd14f71427d1e84f3dd0314c0f7b2291e5b200ac8c7c3b92591015b60405180910390a3505050565b6000610afa848461099e565b90506000198114610b625781811015610b555760405162461bcd60e51b815260206004820152601d60248201527f45524332303a20696e73756666696369656e7420616c6c6f77616e63650000006044820152606401610442565b610b6284848484036109c9565b50505050565b6001600160a01b038316610bcc5760405162461bcd60e51b815260206004820152602560248201527f45524332303a207472616e736665722066726f6d20746865207a65726f206164604482015264647265737360d81b6064820152608401610442565b6001600160a01b038216610c2e5760405162461bcd60e51b815260206004820152602360248201527f45524332303a207472616e7366657220746f20746865207a65726f206164647260448201526265737360e81b6064820152608401610442565b610c39838383610f70565b6001600160a01b03831660009081526020819052604090205481811015610cb15760405162461bcd60e51b815260206004820152602660248201527f45524332303a207472616e7366657220616d6f756e7420657863656564732062604482015265616c616e636560d01b6064820152608401610442565b6001600160a01b03848116600081815260208181526040808320878703905593871680835291849020805487019055925185815290926000805160206112c8833981519152910160405180910390a3610b62565b610d0d610fd6565b6005805460ff191690557f5db9ee0a495bf2e6ff9c91a7834c1ba4fdd244a5e8aa4e537bd38aeae4b073aa335b604051610d479190611157565b60405180910390a1565b6001600160a01b038216610da75760405162461bcd60e51b815260206004820152601f60248201527f45524332303a206d696e7420746f20746865207a65726f2061646472657373006044820152606401610442565b610db360008383610f70565b8060026000828254610dc5919061122b565b90915550506001600160a01b038216600081815260208181526040808320805486019055518481526000805160206112c8833981519152910160405180910390a35050565b610e1261101f565b6005805460ff191660011790557f62e78cea01bee320cd4e420270b5ea74000d11b0c9f74754ebdbfc544b05a258610d3a3390565b6001600160a01b038216610ea75760405162461bcd60e51b815260206004820152602160248201527f45524332303a206275726e2066726f6d20746865207a65726f206164647265736044820152607360f81b6064820152608401610442565b610eb382600083610f70565b6001600160a01b03821660009081526020819052604090205481811015610f275760405162461bcd60e51b815260206004820152602260248201527f45524332303a206275726e20616d6f756e7420657863656564732062616c616e604482015261636560f01b6064820152608401610442565b6001600160a01b0383166000818152602081815260408083208686039055600280548790039055518581529192916000805160206112c88339815191529101610ae1565b505050565b60055460ff1615610f6b5760405162461bcd60e51b815260206004820152602a60248201527f45524332305061757361626c653a20746f6b656e207472616e736665722077686044820152691a5b19481c185d5cd95960b21b6064820152608401610442565b60055460ff166105315760405162461bcd60e51b815260206004820152601460248201527314185d5cd8589b194e881b9bdd081c185d5cd95960621b6044820152606401610442565b60055460ff16156105315760405162461bcd60e51b815260206004820152601060248201526f14185d5cd8589b194e881c185d5cd95960821b6044820152606401610442565b600060208083528351808285015260005b8181101561109257858101830151858201604001528201611076565b506000604082860101526040601f19601f8301168501019250505092915050565b80356001600160a01b03811681146110ca57600080fd5b919050565b600080604083850312156110e257600080fd5b6110eb836110b3565b946020939093013593505050565b60006020828403121561110b57600080fd5b611114826110b3565b9392505050565b60008060006060848603121561113057600080fd5b611139846110b3565b9250611147602085016110b3565b9150604084013590509250925092565b6001600160a01b0391909116815260200190565b60006020828403121561117d57600080fd5b5035919050565b6000806040838503121561119757600080fd5b6111a0836110b3565b91506111ae602084016110b3565b90509250929050565b600181811c908216806111cb57607f821691505b6020821081036111eb57634e487b7160e01b600052602260045260246000fd5b50919050565b6020808252600a908201526927b7363c9037bbb732b960b11b604082015260600190565b634e487b7160e01b600052601160045260246000fd5b8082018082111561041257610412611215565b60006020828403121561125057600080fd5b5051919050565b808202811582820484141761041257610412611215565b60008261128b57634e487b7160e01b600052601260045260246000fd5b500490565b6001600160a01b039384168152919092166020820152604081019190915260600190565b818103818111156104125761041261121556feddf252ad1be2c89b69c2b068fc378daa952ba7f163c4a11628f55a4df523b3efa264697066735822122050d741abbf05e417b13e17432483320241cc868feb124bd93b7183ae27115e9064736f6c63430008110033",
  "linkReferences": {},
  "deployedLinkReferences": {}
}