{
  "_format": "hh-sol-artifact-1",
  "contractName": "ScreenNames",
  "sourceName": "contracts/ScreenNames.sol",
  "abi": [
    {
      "inputs": [],
      "stateMutability": "nonpayable",
      "type": "constructor"
    },
    {
      "inputs": [
        {
          "internalType": "address",
          "name": "_admin",
          "type": "address"
        }
      ],
      "name": "addAdmin",
      "outputs": [],
      "stateMutability": "nonpayable",
      "type": "function"
    },
    {
      "inputs": [
        {
          "internalType": "address",
          "name": "_newOwner",
          "type": "address"
        }
      ],
      "name": "changeOwner",
      "outputs": [],
      "stateMutability": "nonpayable",
      "type": "function"
    },
    {
      "inputs": [
        {
          "internalType": "address",
          "name": "",
          "type": "address"
        }
      ],
      "name": "isAdmin",
      "outputs": [
        {
          "internalType": "bool",
          "name": "",
          "type": "bool"
        }
      ],
      "stateMutability": "view",
      "type": "function"
    },
    {
      "inputs": [],
      "name": "owner",
      "outputs": [
        {
          "internalType": "address",
          "name": "",
          "type": "address"
        }
      ],
      "stateMutability": "view",
      "type": "function"
    },
    {
      "inputs": [
        {
          "internalType": "address",
          "name": "_admin",
          "type": "address"
        }
      ],
      "name": "removeAdmin",
      "outputs": [],
      "stateMutability": "nonpayable",
      "type": "function"
    },
    {
      "inputs": [
        {
          "internalType": "address",
          "name": "_addressToRemove",
          "type": "address"
        }
      ],
      "name": "removeScreenName",
      "outputs": [],
      "stateMutability": "nonpayable",
      "type": "function"
    },
    {
      "inputs": [
        {
          "internalType": "string",
          "name": "",
          "type": "string"
        }
      ],
      "name": "screenNameReverse",
      "outputs": [
        {
          "internalType": "address",
          "name": "",
          "type": "address"
        }
      ],
      "stateMutability": "view",
      "type": "function"
    },
    {
      "inputs": [
        {
          "internalType": "address",
          "name": "",
          "type": "address"
        }
      ],
      "name": "screenNames",
      "outputs": [
        {
          "internalType": "string",
          "name": "",
          "type": "string"
        }
      ],
      "stateMutability": "view",
      "type": "function"
    },
    {
      "inputs": [
        {
          "internalType": "string",
          "name": "_screenName",
          "type": "string"
        }
      ],
      "name": "setScreenName",
      "outputs": [],
      "stateMutability": "nonpayable",
      "type": "function"
    }
  ],
  "bytecode": "0x608060405234801561001057600080fd5b50600380546001600160a01b031916339081179091556000908152600260205260409020805460ff191660011790556109978061004e6000396000f3fe608060405234801561001057600080fd5b50600436106100835760003560e01c806303ff8a85146100885780631785f53c146100d957806324d7806c146100ee5780634940a9c91461012157806370480275146101345780638da5cb5b146101475780639f40da221461015a578063a6f9dae11461017a578063b1e70f511461018d575b600080fd5b6100bc610096366004610685565b80516020818301810180516001825292820191909301209152546001600160a01b031681565b6040516001600160a01b0390911681526020015b60405180910390f35b6100ec6100e7366004610735565b6101a0565b005b6101116100fc366004610735565b60026020526000908152604090205460ff1681565b60405190151581526020016100d0565b6100ec61012f366004610685565b6101f4565b6100ec610142366004610735565b610388565b6003546100bc906001600160a01b031681565b61016d610168366004610735565b6103d6565b6040516100d09190610789565b6100ec610188366004610735565b610470565b6100ec61019b366004610735565b6104bc565b6003546001600160a01b031633146101d35760405162461bcd60e51b81526004016101ca906107bc565b60405180910390fd5b6001600160a01b03166000908152600260205260409020805460ff19169055565b60006001600160a01b031660018260405161020f91906107fd565b908152604051908190036020019020546001600160a01b0316146102725760405162461bcd60e51b815260206004820152601a60248201527953637265656e206e616d6520616c72656164792065786973747360301b60448201526064016101ca565b60008151116102c15760405162461bcd60e51b815260206004820152601b60248201527a53637265656e206e616d652063616e6e6f7420626520656d70747960281b60448201526064016101ca565b60208151111561032b5760405162461bcd60e51b815260206004820152602f60248201527f53637265656e206e616d652063616e6e6f74206265206c6f6e6765722074686160448201526e6e203332206368617261637465727360881b60648201526084016101ca565b33600090815260208190526040902061034482826108a2565b503360018260405161035691906107fd565b90815260405190819003602001902080546001600160a01b03929092166001600160a01b031990921691909117905550565b6003546001600160a01b031633146103b25760405162461bcd60e51b81526004016101ca906107bc565b6001600160a01b03166000908152600260205260409020805460ff19166001179055565b600060208190529081526040902080546103ef90610819565b80601f016020809104026020016040519081016040528092919081815260200182805461041b90610819565b80156104685780601f1061043d57610100808354040283529160200191610468565b820191906000526020600020905b81548152906001019060200180831161044b57829003601f168201915b505050505081565b6003546001600160a01b0316331461049a5760405162461bcd60e51b81526004016101ca906107bc565b600380546001600160a01b0319166001600160a01b0392909216919091179055565b3360009081526002602052604090205460ff166105255760405162461bcd60e51b815260206004820152602160248201527f4f6e6c792061646d696e2063616e2063616c6c20746869732066756e6374696f6044820152603760f91b60648201526084016101ca565b6001600160a01b0381166000908152602081905260408120805461054890610819565b80601f016020809104026020016040519081016040528092919081815260200182805461057490610819565b80156105c15780601f10610596576101008083540402835291602001916105c1565b820191906000526020600020905b8154815290600101906020018083116105a457829003601f168201915b505050505090506001816040516105d891906107fd565b908152604080516020928190038301902080546001600160a01b03191690556001600160a01b038416600090815291829052812061061591610619565b5050565b50805461062590610819565b6000825580601f10610635575050565b601f0160209004906000526020600020908101906106539190610656565b50565b5b8082111561066b5760008155600101610657565b5090565b634e487b7160e01b600052604160045260246000fd5b60006020828403121561069757600080fd5b81356001600160401b03808211156106ae57600080fd5b818401915084601f8301126106c257600080fd5b8135818111156106d4576106d461066f565b604051601f8201601f19908116603f011681019083821181831017156106fc576106fc61066f565b8160405282815287602084870101111561071557600080fd5b826020860160208301376000928101602001929092525095945050505050565b60006020828403121561074757600080fd5b81356001600160a01b038116811461075e57600080fd5b9392505050565b60005b83811015610780578181015183820152602001610768565b50506000910152565b60208152600082518060208401526107a8816040850160208701610765565b601f01601f19169190910160400192915050565b60208082526021908201527f4f6e6c79206f776e65722063616e2063616c6c20746869732066756e6374696f6040820152603760f91b606082015260800190565b6000825161080f818460208701610765565b9190910192915050565b600181811c9082168061082d57607f821691505b60208210810361084d57634e487b7160e01b600052602260045260246000fd5b50919050565b601f82111561089d57600081815260208120601f850160051c8101602086101561087a5750805b601f850160051c820191505b8181101561089957828155600101610886565b5050505b505050565b81516001600160401b038111156108bb576108bb61066f565b6108cf816108c98454610819565b84610853565b602080601f83116001811461090457600084156108ec5750858301515b600019600386901b1c1916600185901b178555610899565b600085815260208120601f198616915b8281101561093357888601518255948401946001909101908401610914565b50858210156109515787850151600019600388901b60f8161c191681555b5050505050600190811b0190555056fea26469706673582212209e905cd4b38dcd33c5d3dc85da6b3e3c0bc10aadd4aa505cab18605f3f553cde64736f6c63430008110033",
  "linkReferences": {},
  "deployedLinkReferences": {}
}