{
  "_format": "hh-sol-artifact-1",
  "contractName": "ScreenNames",
  "sourceName": "contracts/ScreenNames.sol",
  "abi": [
    {
      "inputs": [],
      "stateMutability": "nonpayable",
      "type": "constructor"
    },
    {
      "inputs": [
        {
          "internalType": "address",
          "name": "_admin",
          "type": "address"
        }
      ],
      "name": "addAdmin",
      "outputs": [],
      "stateMutability": "nonpayable",
      "type": "function"
    },
    {
      "inputs": [
        {
          "internalType": "address",
          "name": "_newOwner",
          "type": "address"
        }
      ],
      "name": "changeOwner",
      "outputs": [],
      "stateMutability": "nonpayable",
      "type": "function"
    },
    {
      "inputs": [
        {
          "internalType": "address",
          "name": "",
          "type": "address"
        }
      ],
      "name": "isAdmin",
      "outputs": [
        {
          "internalType": "bool",
          "name": "",
          "type": "bool"
        }
      ],
      "stateMutability": "view",
      "type": "function"
    },
    {
      "inputs": [],
      "name": "owner",
      "outputs": [
        {
          "internalType": "address",
          "name": "",
          "type": "address"
        }
      ],
      "stateMutability": "view",
      "type": "function"
    },
    {
      "inputs": [
        {
          "internalType": "address",
          "name": "_admin",
          "type": "address"
        }
      ],
      "name": "removeAdmin",
      "outputs": [],
      "stateMutability": "nonpayable",
      "type": "function"
    },
    {
      "inputs": [
        {
          "internalType": "address",
          "name": "_addressToRemove",
          "type": "address"
        }
      ],
      "name": "removeScreenName",
      "outputs": [],
      "stateMutability": "nonpayable",
      "type": "function"
    },
    {
      "inputs": [
        {
          "internalType": "string",
          "name": "",
          "type": "string"
        }
      ],
      "name": "screenNameExists",
      "outputs": [
        {
          "internalType": "bool",
          "name": "",
          "type": "bool"
        }
      ],
      "stateMutability": "view",
      "type": "function"
    },
    {
      "inputs": [
        {
          "internalType": "address",
          "name": "",
          "type": "address"
        }
      ],
      "name": "screenNames",
      "outputs": [
        {
          "internalType": "string",
          "name": "",
          "type": "string"
        }
      ],
      "stateMutability": "view",
      "type": "function"
    },
    {
      "inputs": [
        {
          "internalType": "string",
          "name": "_screenName",
          "type": "string"
        }
      ],
      "name": "setScreenName",
      "outputs": [],
      "stateMutability": "nonpayable",
      "type": "function"
    }
  ],
  "bytecode": "0x608060405234801561001057600080fd5b50600380546001600160a01b031916339081179091556000908152600260205260409020805460ff191660011790556109768061004e6000396000f3fe608060405234801561001057600080fd5b50600436106100835760003560e01c80631785f53c1461008857806324d7806c1461009d5780634940a9c9146100d557806370480275146100e85780638da5cb5b146100fb5780639f40da2214610126578063a6f9dae114610146578063b1e70f5114610159578063c7404ed11461016c575b600080fd5b61009b61009636600461064e565b61019a565b005b6100c06100ab36600461064e565b60026020526000908152604090205460ff1681565b60405190151581526020015b60405180910390f35b61009b6100e3366004610694565b6101ee565b61009b6100f636600461064e565b610362565b60035461010e906001600160a01b031681565b6040516001600160a01b0390911681526020016100cc565b61013961013436600461064e565b6103b0565b6040516100cc9190610768565b61009b61015436600461064e565b61044a565b61009b61016736600461064e565b610496565b6100c061017a366004610694565b805160208183018101805160018252928201919093012091525460ff1681565b6003546001600160a01b031633146101cd5760405162461bcd60e51b81526004016101c49061079b565b60405180910390fd5b6001600160a01b03166000908152600260205260409020805460ff19169055565b6001816040516101fe91906107dc565b9081526040519081900360200190205460ff161561025b5760405162461bcd60e51b815260206004820152601a60248201527953637265656e206e616d6520616c72656164792065786973747360301b60448201526064016101c4565b60008151116102aa5760405162461bcd60e51b815260206004820152601b60248201527a53637265656e206e616d652063616e6e6f7420626520656d70747960281b60448201526064016101c4565b6020815111156103145760405162461bcd60e51b815260206004820152602f60248201527f53637265656e206e616d652063616e6e6f74206265206c6f6e6765722074686160448201526e6e203332206368617261637465727360881b60648201526084016101c4565b33600090815260208190526040902061032d8282610881565b506001808260405161033f91906107dc565b908152604051908190036020019020805491151560ff1990921691909117905550565b6003546001600160a01b0316331461038c5760405162461bcd60e51b81526004016101c49061079b565b6001600160a01b03166000908152600260205260409020805460ff19166001179055565b600060208190529081526040902080546103c9906107f8565b80601f01602080910402602001604051908101604052809291908181526020018280546103f5906107f8565b80156104425780601f1061041757610100808354040283529160200191610442565b820191906000526020600020905b81548152906001019060200180831161042557829003601f168201915b505050505081565b6003546001600160a01b031633146104745760405162461bcd60e51b81526004016101c49061079b565b600380546001600160a01b0319166001600160a01b0392909216919091179055565b3360009081526002602052604090205460ff166104ff5760405162461bcd60e51b815260206004820152602160248201527f4f6e6c792061646d696e2063616e2063616c6c20746869732066756e6374696f6044820152603760f91b60648201526084016101c4565b6001600160a01b03811660009081526020819052604081208054610522906107f8565b80601f016020809104026020016040519081016040528092919081815260200182805461054e906107f8565b801561059b5780601f106105705761010080835404028352916020019161059b565b820191906000526020600020905b81548152906001019060200180831161057e57829003601f168201915b5050505050905060006001826040516105b491906107dc565b9081526040805160209281900383019020805460ff1916931515939093179092556001600160a01b0384166000908152908190529081206105f4916105f8565b5050565b508054610604906107f8565b6000825580601f10610614575050565b601f0160209004906000526020600020908101906106329190610635565b50565b5b8082111561064a5760008155600101610636565b5090565b60006020828403121561066057600080fd5b81356001600160a01b038116811461067757600080fd5b9392505050565b634e487b7160e01b600052604160045260246000fd5b6000602082840312156106a657600080fd5b81356001600160401b03808211156106bd57600080fd5b818401915084601f8301126106d157600080fd5b8135818111156106e3576106e361067e565b604051601f8201601f19908116603f0116810190838211818310171561070b5761070b61067e565b8160405282815287602084870101111561072457600080fd5b826020860160208301376000928101602001929092525095945050505050565b60005b8381101561075f578181015183820152602001610747565b50506000910152565b6020815260008251806020840152610787816040850160208701610744565b601f01601f19169190910160400192915050565b60208082526021908201527f4f6e6c79206f776e65722063616e2063616c6c20746869732066756e6374696f6040820152603760f91b606082015260800190565b600082516107ee818460208701610744565b9190910192915050565b600181811c9082168061080c57607f821691505b60208210810361082c57634e487b7160e01b600052602260045260246000fd5b50919050565b601f82111561087c57600081815260208120601f850160051c810160208610156108595750805b601f850160051c820191505b8181101561087857828155600101610865565b5050505b505050565b81516001600160401b0381111561089a5761089a61067e565b6108ae816108a884546107f8565b84610832565b602080601f8311600181146108e357600084156108cb5750858301515b600019600386901b1c1916600185901b178555610878565b600085815260208120601f198616915b82811015610912578886015182559484019460019091019084016108f3565b50858210156109305787850151600019600388901b60f8161c191681555b5050505050600190811b0190555056fea26469706673582212204250910c852be08e4791411ecdec777db958be59131787968a9dbfa4c443d9d664736f6c63430008110033",
  "linkReferences": {},
  "deployedLinkReferences": {}
}