{
  "_format": "hh-sol-artifact-1",
  "contractName": "StakingHelper",
  "sourceName": "contracts/SweepStakes.sol",
  "abi": [
    {
      "inputs": [
        {
          "internalType": "address",
          "name": "_sweepstakes",
          "type": "address"
        },
        {
          "internalType": "address",
          "name": "_owner",
          "type": "address"
        }
      ],
      "stateMutability": "nonpayable",
      "type": "constructor"
    },
    {
      "anonymous": false,
      "inputs": [
        {
          "indexed": false,
          "internalType": "uint256",
          "name": "_amount",
          "type": "uint256"
        }
      ],
      "name": "MoveCompleted",
      "type": "event"
    },
    {
      "anonymous": false,
      "inputs": [
        {
          "indexed": false,
          "internalType": "uint256",
          "name": "_amount",
          "type": "uint256"
        }
      ],
      "name": "MoveStarted",
      "type": "event"
    },
    {
      "anonymous": false,
      "inputs": [
        {
          "indexed": false,
          "internalType": "uint8",
          "name": "directive",
          "type": "uint8"
        },
        {
          "indexed": false,
          "internalType": "bool",
          "name": "success",
          "type": "bool"
        }
      ],
      "name": "StakingPrecompileCalled",
      "type": "event"
    },
    {
      "inputs": [
        {
          "internalType": "uint256",
          "name": "_amount",
          "type": "uint256"
        },
        {
          "internalType": "uint256",
          "name": "_tokenId",
          "type": "uint256"
        }
      ],
      "name": "addToToken",
      "outputs": [],
      "stateMutability": "payable",
      "type": "function"
    },
    {
      "inputs": [
        {
          "internalType": "uint256",
          "name": "_amount",
          "type": "uint256"
        }
      ],
      "name": "autoCompound",
      "outputs": [],
      "stateMutability": "nonpayable",
      "type": "function"
    },
    {
      "inputs": [],
      "name": "collect",
      "outputs": [
        {
          "internalType": "uint256",
          "name": "",
          "type": "uint256"
        }
      ],
      "stateMutability": "nonpayable",
      "type": "function"
    },
    {
      "inputs": [
        {
          "internalType": "address",
          "name": "",
          "type": "address"
        }
      ],
      "name": "delegatedToValidator",
      "outputs": [
        {
          "internalType": "uint256",
          "name": "",
          "type": "uint256"
        }
      ],
      "stateMutability": "view",
      "type": "function"
    },
    {
      "inputs": [
        {
          "internalType": "uint256",
          "name": "_amount",
          "type": "uint256"
        }
      ],
      "name": "enter",
      "outputs": [],
      "stateMutability": "payable",
      "type": "function"
    },
    {
      "inputs": [],
      "name": "epoch",
      "outputs": [
        {
          "internalType": "uint256",
          "name": "",
          "type": "uint256"
        }
      ],
      "stateMutability": "view",
      "type": "function"
    },
    {
      "inputs": [],
      "name": "extraFunds",
      "outputs": [
        {
          "internalType": "uint256",
          "name": "",
          "type": "uint256"
        }
      ],
      "stateMutability": "view",
      "type": "function"
    },
    {
      "inputs": [],
      "name": "initiateMoveEpoch",
      "outputs": [
        {
          "internalType": "uint256",
          "name": "",
          "type": "uint256"
        }
      ],
      "stateMutability": "view",
      "type": "function"
    },
    {
      "inputs": [
        {
          "internalType": "address",
          "name": "_validator",
          "type": "address"
        }
      ],
      "name": "isValidator",
      "outputs": [
        {
          "internalType": "bool",
          "name": "",
          "type": "bool"
        }
      ],
      "stateMutability": "view",
      "type": "function"
    },
    {
      "inputs": [],
      "name": "juicePrizePool",
      "outputs": [],
      "stateMutability": "payable",
      "type": "function"
    },
    {
      "inputs": [],
      "name": "minDelegation",
      "outputs": [
        {
          "internalType": "uint256",
          "name": "",
          "type": "uint256"
        }
      ],
      "stateMutability": "view",
      "type": "function"
    },
    {
      "inputs": [],
      "name": "moving",
      "outputs": [
        {
          "internalType": "uint256",
          "name": "",
          "type": "uint256"
        }
      ],
      "stateMutability": "view",
      "type": "function"
    },
    {
      "inputs": [],
      "name": "owner",
      "outputs": [
        {
          "internalType": "address",
          "name": "",
          "type": "address"
        }
      ],
      "stateMutability": "view",
      "type": "function"
    },
    {
      "inputs": [
        {
          "internalType": "address",
          "name": "_user",
          "type": "address"
        },
        {
          "internalType": "uint256",
          "name": "_amount",
          "type": "uint256"
        }
      ],
      "name": "payUser",
      "outputs": [],
      "stateMutability": "nonpayable",
      "type": "function"
    },
    {
      "inputs": [],
      "name": "pendingDelegation",
      "outputs": [
        {
          "internalType": "uint256",
          "name": "",
          "type": "uint256"
        }
      ],
      "stateMutability": "view",
      "type": "function"
    },
    {
      "inputs": [],
      "name": "rebalanceEnd",
      "outputs": [],
      "stateMutability": "nonpayable",
      "type": "function"
    },
    {
      "inputs": [
        {
          "internalType": "address[]",
          "name": "_newValidators",
          "type": "address[]"
        }
      ],
      "name": "rebalanceStart",
      "outputs": [],
      "stateMutability": "nonpayable",
      "type": "function"
    },
    {
      "inputs": [
        {
          "internalType": "uint256",
          "name": "_minDelegation",
          "type": "uint256"
        }
      ],
      "name": "setMinDelegation",
      "outputs": [],
      "stateMutability": "nonpayable",
      "type": "function"
    },
    {
      "inputs": [
        {
          "internalType": "address",
          "name": "_owner",
          "type": "address"
        }
      ],
      "name": "setOwner",
      "outputs": [],
      "stateMutability": "nonpayable",
      "type": "function"
    },
    {
      "inputs": [
        {
          "internalType": "address",
          "name": "_sweepstakes",
          "type": "address"
        }
      ],
      "name": "setSweepstakes",
      "outputs": [],
      "stateMutability": "nonpayable",
      "type": "function"
    },
    {
      "inputs": [
        {
          "internalType": "address[]",
          "name": "_validators",
          "type": "address[]"
        }
      ],
      "name": "setValidators",
      "outputs": [],
      "stateMutability": "nonpayable",
      "type": "function"
    },
    {
      "inputs": [],
      "name": "sweepstakes",
      "outputs": [
        {
          "internalType": "address",
          "name": "",
          "type": "address"
        }
      ],
      "stateMutability": "view",
      "type": "function"
    },
    {
      "inputs": [
        {
          "internalType": "uint256",
          "name": "_amount",
          "type": "uint256"
        },
        {
          "internalType": "uint256",
          "name": "_tokenId",
          "type": "uint256"
        }
      ],
      "name": "unstake",
      "outputs": [],
      "stateMutability": "nonpayable",
      "type": "function"
    },
    {
      "inputs": [
        {
          "internalType": "uint256",
          "name": "",
          "type": "uint256"
        }
      ],
      "name": "validators",
      "outputs": [
        {
          "internalType": "address",
          "name": "",
          "type": "address"
        }
      ],
      "stateMutability": "view",
      "type": "function"
    }
  ],
  "bytecode": "0x608060405268056bc75e2d6310000060055534801561001d57600080fd5b5060405161146338038061146383398101604081905261003c9161008c565b600180546001600160a01b039283166001600160a01b031991821617909155600280549390921692169190911790556100bf565b80516001600160a01b038116811461008757600080fd5b919050565b6000806040838503121561009f57600080fd5b6100a883610070565b91506100b660208401610070565b90509250929050565b611395806100ce6000396000f3fe60806040526004361061011b5760003560e01c806302985992146101205780630d56ad631461014957806313af40351461016057806313c366671461018057806335aa2e44146101a05780635490b70a146101cd57806355888536146101ed5780635b2b030d1461020d57806364d93326146102155780637b6a58e814610235578063824be2f5146102485780638b616db81461025e5780638da5cb5b14610274578063900cf0cf146102945780639232521c146102a95780639300c926146102d65780639e2c8a5b146102f6578063a59f3e0c14610316578063ae4e9e9814610329578063cb11526d14610349578063dfea77a71461035f578063e522538114610375578063ecd831e81461038a578063facd743b146103aa575b600080fd5b34801561012c57600080fd5b5061013660055481565b6040519081526020015b60405180910390f35b34801561015557600080fd5b5061015e6103da565b005b34801561016c57600080fd5b5061015e61017b366004611053565b6104b5565b34801561018c57600080fd5b5061015e61019b366004611075565b610501565b3480156101ac57600080fd5b506101c06101bb366004611075565b610530565b604051610140919061108e565b3480156101d957600080fd5b5061015e6101e83660046110b8565b61055a565b3480156101f957600080fd5b506002546101c0906001600160a01b031681565b61015e610772565b34801561022157600080fd5b5061015e610230366004611053565b61078b565b61015e61024336600461117c565b6107d7565b34801561025457600080fd5b5061013660045481565b34801561026a57600080fd5b5061013660075481565b34801561028057600080fd5b506001546101c0906001600160a01b031681565b3480156102a057600080fd5b50610136610869565b3480156102b557600080fd5b506101366102c4366004611053565b60086020526000908152604090205481565b3480156102e257600080fd5b5061015e6102f13660046110b8565b61088b565b34801561030257600080fd5b5061015e61031136600461117c565b6108cc565b61015e610324366004611075565b610aac565b34801561033557600080fd5b5061015e610344366004611075565b610b3b565b34801561035557600080fd5b5061013660065481565b34801561036b57600080fd5b5061013660035481565b34801561038157600080fd5b50610136610b71565b34801561039657600080fd5b5061015e6103a536600461119e565b610c11565b3480156103b657600080fd5b506103ca6103c5366004611053565b610c76565b6040519015158152602001610140565b6000600654116104235760405162461bcd60e51b815260206004820152600f60248201526e4e6f7468696e6720746f206d6f766560881b60448201526064015b60405180910390fd5b60035461042e610869565b1161046e5760405162461bcd60e51b815260206004820152601060248201526f115c1bd8da081b9bdd081c185cdcd95960821b604482015260640161041a565b610479600654610cdf565b600060068190556040519081527ffe3a1b8697c9593595c052639ad5d680019519386a4a1577d98fabff195ef0619060200160405180910390a1565b6001546001600160a01b031633146104df5760405162461bcd60e51b815260040161041a906111c8565b600180546001600160a01b0319166001600160a01b0392909216919091179055565b6001546001600160a01b0316331461052b5760405162461bcd60e51b815260040161041a906111c8565b600555565b6000818154811061054057600080fd5b6000918252602090912001546001600160a01b0316905081565b6001546001600160a01b031633146105845760405162461bcd60e51b815260040161041a906111c8565b60008151116105cb5760405162461bcd60e51b81526020600482015260136024820152722737903b30b634b230ba37b9399033b4bb32b760691b604482015260640161041a565b6006541561060c5760405162461bcd60e51b815260206004820152600e60248201526d416c7265616479206d6f76696e6760901b604482015260640161041a565b60005b60005481101561071457600060086000808481548110610631576106316111ec565b60009182526020808320909101546001600160a01b0316835282019290925260400181205481549092506008908290819086908110610672576106726111ec565b60009182526020808320909101546001600160a01b0316835282019290925260400181209190915580546106cc9190849081106106b1576106b16111ec565b6000918252602090912001546001600160a01b031682610e11565b6106e85760405162461bcd60e51b815260040161041a90611202565b80600660008282546106fa9190611243565b9091555082915061070c90508161125c565b91505061060f565b5061071d610869565b6003558051610733906000906020840190610fbd565b507fea1ddd4ead2fe9774cbdf84d1f32d93ee6c3f52ced7fb65dae0d5ac5153adec960065460405161076791815260200190565b60405180910390a150565b34600760008282546107849190611243565b9091555050565b6001546001600160a01b031633146107b55760405162461bcd60e51b815260040161041a906111c8565b600280546001600160a01b0319166001600160a01b0392909216919091179055565b8134146107f65760405162461bcd60e51b815260040161041a90611275565b6107ff82610cdf565b600254604051633a35926f60e11b81526001600160a01b039091169063746b24de906108339033908690869060040161129b565b600060405180830381600087803b15801561084d57600080fd5b505af1158015610861573d6000803e3d6000fd5b505050505050565b600080600060405160208160208560fb600019fa61088357fe5b519392505050565b6001546001600160a01b031633146108b55760405162461bcd60e51b815260040161041a906111c8565b80516108c8906000906020840190610fbd565b5050565b6006541561092c5760405162461bcd60e51b815260206004820152602760248201527f43616e277420756e7374616b65207768696c65206368616e67696e672076616c604482015266696461746f727360c81b606482015260840161041a565b6004548290811115610a295760045461094590826112bc565b600060048190559091505b600054811015610a235761099860008281548110610970576109706111ec565b600091825260208220015490546001600160a01b039091169061099390856112cf565b610e11565b6109b45760405162461bcd60e51b815260040161041a90611202565b6000546109c190836112cf565b600860008084815481106109d7576109d76111ec565b60009182526020808320909101546001600160a01b0316835282019290925260400181208054909190610a0b9084906112bc565b90915550819050610a1b8161125c565b915050610950565b50610a41565b8060046000828254610a3b91906112bc565b90915550505b60025460405163515e335f60e11b81526001600160a01b039091169063a2bc66be90610a759033908790879060040161129b565b600060405180830381600087803b158015610a8f57600080fd5b505af1158015610aa3573d6000803e3d6000fd5b50505050505050565b803414610acb5760405162461bcd60e51b815260040161041a90611275565b610ad481610cdf565b600254604051637e348b7d60e01b8152336004820152602481018390526001600160a01b0390911690637e348b7d90604401600060405180830381600087803b158015610b2057600080fd5b505af1158015610b34573d6000803e3d6000fd5b5050505050565b6002546001600160a01b03163314610b655760405162461bcd60e51b815260040161041a906112f1565b610b6e81610cdf565b50565b6002546000906001600160a01b03163314610b9e5760405162461bcd60e51b815260040161041a906112f1565b6007544790610bad90826112bc565b60006007559050610bbc610e5a565b610c015760405162461bcd60e51b815260206004820152601660248201527510dbdb1b1958dd081c995dd85c991cc819985a5b195960521b604482015260640161041a565b610c0b81476112bc565b91505090565b6002546001600160a01b03163314610c3b5760405162461bcd60e51b815260040161041a906112f1565b6040516001600160a01b0383169082156108fc029083906000818181858888f19350505050158015610c71573d6000803e3d6000fd5b505050565b6000805b600054811015610cd657826001600160a01b031660008281548110610ca157610ca16111ec565b6000918252602090912001546001600160a01b031603610cc45750600192915050565b80610cce8161125c565b915050610c7a565b50600092915050565b600081600454610cef9190611243565b60055460005491925090610d0390836112cf565b1015610d0f5760045550565b60005b600054811015610e0757610d5a60008281548110610d3257610d326111ec565b600091825260208220015490546001600160a01b0390911690610d5590856112cf565b610e99565b610d985760405162461bcd60e51b815260206004820152600f60248201526e11195b1959d85d194819985a5b1959608a1b604482015260640161041a565b600054610da590836112cf565b60086000808481548110610dbb57610dbb6111ec565b60009182526020808320909101546001600160a01b0316835282019290925260400181208054909190610def908490611243565b90915550819050610dff8161125c565b915050610d12565b5060006004555050565b600080610e1e8484610ec3565b8015159250905060008051602061134083398151915260035b6040805160ff909216825284151560208301520160405180910390a15092915050565b600080610e65610f33565b6040805160048152821515602082018190529450919250600080516020611340833981519152910160405180910390a15090565b600080610ea68484610f9d565b801515925090506000805160206113408339815191526002610e37565b60008063bda8c0e960e01b308585604051602401610ee39392919061131b565b604051602081830303815290604052906001600160e01b0319166020820180516001600160e01b03838183161783525050505090506020604051825160208401600060fc6161a8f1949350505050565b600080636d6b2f7760e01b30604051602401610f4f919061108e565b604051602081830303815290604052906001600160e01b0319166020820180516001600160e01b03838183161783525050505090506020604051825160208401600060fc6161a8f191505090565b60008063510b11bb60e01b308585604051602401610ee39392919061131b565b828054828255906000526020600020908101928215611012579160200282015b8281111561101257825182546001600160a01b0319166001600160a01b03909116178255602090920191600190910190610fdd565b5061101e929150611022565b5090565b5b8082111561101e5760008155600101611023565b80356001600160a01b038116811461104e57600080fd5b919050565b60006020828403121561106557600080fd5b61106e82611037565b9392505050565b60006020828403121561108757600080fd5b5035919050565b6001600160a01b0391909116815260200190565b634e487b7160e01b600052604160045260246000fd5b600060208083850312156110cb57600080fd5b82356001600160401b03808211156110e257600080fd5b818501915085601f8301126110f657600080fd5b813581811115611108576111086110a2565b8060051b604051601f19603f8301168101818110858211171561112d5761112d6110a2565b60405291825284820192508381018501918883111561114b57600080fd5b938501935b828510156111705761116185611037565b84529385019392850192611150565b98975050505050505050565b6000806040838503121561118f57600080fd5b50508035926020909101359150565b600080604083850312156111b157600080fd5b6111ba83611037565b946020939093013593505050565b6020808252600a908201526927b7363c9037bbb732b960b11b604082015260600190565b634e487b7160e01b600052603260045260246000fd5b602080825260119082015270155b99195b1959d85d194819985a5b1959607a1b604082015260600190565b634e487b7160e01b600052601160045260246000fd5b808201808211156112565761125661122d565b92915050565b60006001820161126e5761126e61122d565b5060010190565b6020808252600c908201526b15dc9bdb99c8105b5bdd5b9d60a21b604082015260600190565b6001600160a01b039390931683526020830191909152604082015260600190565b818103818111156112565761125661122d565b6000826112ec57634e487b7160e01b600052601260045260246000fd5b500490565b60208082526010908201526f4f6e6c792073776565707374616b657360801b604082015260600190565b6001600160a01b03938416815291909216602082015260408101919091526060019056fe4ab3c6ec3a76761a1016662742d10350c318ec6aa3a21b6e14b25d906c89b9f9a26469706673582212209db8724dbdfe994800ed77f7b5372a805b36d8c6f5392d23399a9983f3b888e764736f6c63430008110033",
  "linkReferences": {},
  "deployedLinkReferences": {}
}