{
  "_format": "hh-sol-artifact-1",
  "contractName": "SweepStakesNFTs",
  "sourceName": "contracts/SweepStakes.sol",
  "abi": [
    {
      "inputs": [
        {
          "internalType": "address[]",
          "name": "_holders",
          "type": "address[]"
        },
        {
          "internalType": "uint256[]",
          "name": "_staked",
          "type": "uint256[]"
        },
        {
          "internalType": "uint256[]",
          "name": "_unstaked",
          "type": "uint256[]"
        },
        {
          "internalType": "uint256[]",
          "name": "_withdrawEpochs",
          "type": "uint256[]"
        }
      ],
      "stateMutability": "nonpayable",
      "type": "constructor"
    },
    {
      "anonymous": false,
      "inputs": [
        {
          "indexed": true,
          "internalType": "address",
          "name": "owner",
          "type": "address"
        },
        {
          "indexed": true,
          "internalType": "address",
          "name": "approved",
          "type": "address"
        },
        {
          "indexed": true,
          "internalType": "uint256",
          "name": "tokenId",
          "type": "uint256"
        }
      ],
      "name": "Approval",
      "type": "event"
    },
    {
      "anonymous": false,
      "inputs": [
        {
          "indexed": true,
          "internalType": "address",
          "name": "owner",
          "type": "address"
        },
        {
          "indexed": true,
          "internalType": "address",
          "name": "operator",
          "type": "address"
        },
        {
          "indexed": false,
          "internalType": "bool",
          "name": "approved",
          "type": "bool"
        }
      ],
      "name": "ApprovalForAll",
      "type": "event"
    },
    {
      "anonymous": false,
      "inputs": [],
      "name": "DrawWinner",
      "type": "event"
    },
    {
      "anonymous": false,
      "inputs": [
        {
          "indexed": true,
          "internalType": "uint256",
          "name": "_tokenId",
          "type": "uint256"
        },
        {
          "indexed": false,
          "internalType": "uint256",
          "name": "_amount",
          "type": "uint256"
        }
      ],
      "name": "Enter",
      "type": "event"
    },
    {
      "anonymous": false,
      "inputs": [
        {
          "indexed": true,
          "internalType": "address",
          "name": "from",
          "type": "address"
        },
        {
          "indexed": true,
          "internalType": "address",
          "name": "to",
          "type": "address"
        },
        {
          "indexed": true,
          "internalType": "uint256",
          "name": "tokenId",
          "type": "uint256"
        }
      ],
      "name": "Transfer",
      "type": "event"
    },
    {
      "anonymous": false,
      "inputs": [
        {
          "indexed": true,
          "internalType": "uint256",
          "name": "_tokenId",
          "type": "uint256"
        },
        {
          "indexed": false,
          "internalType": "uint256",
          "name": "_amount",
          "type": "uint256"
        }
      ],
      "name": "Unstake",
      "type": "event"
    },
    {
      "anonymous": false,
      "inputs": [
        {
          "indexed": false,
          "internalType": "uint256",
          "name": "winningTicket",
          "type": "uint256"
        },
        {
          "indexed": true,
          "internalType": "uint256",
          "name": "_winner",
          "type": "uint256"
        },
        {
          "indexed": false,
          "internalType": "uint256",
          "name": "_amount",
          "type": "uint256"
        }
      ],
      "name": "WinnerAssigned",
      "type": "event"
    },
    {
      "anonymous": false,
      "inputs": [
        {
          "indexed": true,
          "internalType": "uint256",
          "name": "_tokenId",
          "type": "uint256"
        },
        {
          "indexed": false,
          "internalType": "uint256",
          "name": "_amount",
          "type": "uint256"
        }
      ],
      "name": "Withdraw",
      "type": "event"
    },
    {
      "inputs": [
        {
          "internalType": "address",
          "name": "_entrant",
          "type": "address"
        },
        {
          "internalType": "uint256",
          "name": "_amount",
          "type": "uint256"
        },
        {
          "internalType": "uint256",
          "name": "_tokenId",
          "type": "uint256"
        }
      ],
      "name": "addToToken",
      "outputs": [],
      "stateMutability": "nonpayable",
      "type": "function"
    },
    {
      "inputs": [
        {
          "internalType": "address",
          "name": "to",
          "type": "address"
        },
        {
          "internalType": "uint256",
          "name": "tokenId",
          "type": "uint256"
        }
      ],
      "name": "approve",
      "outputs": [],
      "stateMutability": "nonpayable",
      "type": "function"
    },
    {
      "inputs": [],
      "name": "assignPrize",
      "outputs": [],
      "stateMutability": "nonpayable",
      "type": "function"
    },
    {
      "inputs": [
        {
          "internalType": "uint256",
          "name": "",
          "type": "uint256"
        }
      ],
      "name": "availableTokenIds",
      "outputs": [
        {
          "internalType": "uint256",
          "name": "",
          "type": "uint256"
        }
      ],
      "stateMutability": "view",
      "type": "function"
    },
    {
      "inputs": [
        {
          "internalType": "address",
          "name": "owner",
          "type": "address"
        }
      ],
      "name": "balanceOf",
      "outputs": [
        {
          "internalType": "uint256",
          "name": "",
          "type": "uint256"
        }
      ],
      "stateMutability": "view",
      "type": "function"
    },
    {
      "inputs": [],
      "name": "beneficiary",
      "outputs": [
        {
          "internalType": "address",
          "name": "",
          "type": "address"
        }
      ],
      "stateMutability": "view",
      "type": "function"
    },
    {
      "inputs": [],
      "name": "drawPeriod",
      "outputs": [
        {
          "internalType": "uint256",
          "name": "",
          "type": "uint256"
        }
      ],
      "stateMutability": "view",
      "type": "function"
    },
    {
      "inputs": [],
      "name": "drawWinner",
      "outputs": [],
      "stateMutability": "nonpayable",
      "type": "function"
    },
    {
      "inputs": [
        {
          "internalType": "address",
          "name": "_entrant",
          "type": "address"
        },
        {
          "internalType": "uint256",
          "name": "_amount",
          "type": "uint256"
        }
      ],
      "name": "enter",
      "outputs": [],
      "stateMutability": "nonpayable",
      "type": "function"
    },
    {
      "inputs": [],
      "name": "feesToCollect",
      "outputs": [
        {
          "internalType": "uint256",
          "name": "",
          "type": "uint256"
        }
      ],
      "stateMutability": "view",
      "type": "function"
    },
    {
      "inputs": [
        {
          "internalType": "uint256",
          "name": "tokenId",
          "type": "uint256"
        }
      ],
      "name": "getApproved",
      "outputs": [
        {
          "internalType": "address",
          "name": "",
          "type": "address"
        }
      ],
      "stateMutability": "view",
      "type": "function"
    },
    {
      "inputs": [
        {
          "internalType": "uint256",
          "name": "_tokenId",
          "type": "uint256"
        }
      ],
      "name": "getNFTValue",
      "outputs": [
        {
          "internalType": "uint256",
          "name": "",
          "type": "uint256"
        }
      ],
      "stateMutability": "view",
      "type": "function"
    },
    {
      "inputs": [
        {
          "internalType": "address",
          "name": "owner",
          "type": "address"
        },
        {
          "internalType": "address",
          "name": "operator",
          "type": "address"
        }
      ],
      "name": "isApprovedForAll",
      "outputs": [
        {
          "internalType": "bool",
          "name": "",
          "type": "bool"
        }
      ],
      "stateMutability": "view",
      "type": "function"
    },
    {
      "inputs": [],
      "name": "lastDrawTime",
      "outputs": [
        {
          "internalType": "uint256",
          "name": "",
          "type": "uint256"
        }
      ],
      "stateMutability": "view",
      "type": "function"
    },
    {
      "inputs": [],
      "name": "minStake",
      "outputs": [
        {
          "internalType": "uint256",
          "name": "",
          "type": "uint256"
        }
      ],
      "stateMutability": "view",
      "type": "function"
    },
    {
      "inputs": [],
      "name": "name",
      "outputs": [
        {
          "internalType": "string",
          "name": "",
          "type": "string"
        }
      ],
      "stateMutability": "view",
      "type": "function"
    },
    {
      "inputs": [],
      "name": "owner",
      "outputs": [
        {
          "internalType": "address",
          "name": "",
          "type": "address"
        }
      ],
      "stateMutability": "view",
      "type": "function"
    },
    {
      "inputs": [
        {
          "internalType": "uint256",
          "name": "tokenId",
          "type": "uint256"
        }
      ],
      "name": "ownerOf",
      "outputs": [
        {
          "internalType": "address",
          "name": "",
          "type": "address"
        }
      ],
      "stateMutability": "view",
      "type": "function"
    },
    {
      "inputs": [],
      "name": "pageSize",
      "outputs": [
        {
          "internalType": "uint256",
          "name": "",
          "type": "uint256"
        }
      ],
      "stateMutability": "view",
      "type": "function"
    },
    {
      "inputs": [
        {
          "internalType": "uint256",
          "name": "",
          "type": "uint256"
        }
      ],
      "name": "pages",
      "outputs": [
        {
          "internalType": "uint256",
          "name": "",
          "type": "uint256"
        }
      ],
      "stateMutability": "view",
      "type": "function"
    },
    {
      "inputs": [],
      "name": "prizeAssigned",
      "outputs": [
        {
          "internalType": "bool",
          "name": "",
          "type": "bool"
        }
      ],
      "stateMutability": "view",
      "type": "function"
    },
    {
      "inputs": [],
      "name": "prizeFee",
      "outputs": [
        {
          "internalType": "uint256",
          "name": "",
          "type": "uint256"
        }
      ],
      "stateMutability": "view",
      "type": "function"
    },
    {
      "inputs": [],
      "name": "prizePool",
      "outputs": [
        {
          "internalType": "uint256",
          "name": "",
          "type": "uint256"
        }
      ],
      "stateMutability": "view",
      "type": "function"
    },
    {
      "inputs": [
        {
          "internalType": "uint256",
          "name": "",
          "type": "uint256"
        }
      ],
      "name": "prizeSchedule",
      "outputs": [
        {
          "internalType": "uint256",
          "name": "",
          "type": "uint256"
        }
      ],
      "stateMutability": "view",
      "type": "function"
    },
    {
      "inputs": [],
      "name": "prizeScheduleIndex",
      "outputs": [
        {
          "internalType": "uint256",
          "name": "",
          "type": "uint256"
        }
      ],
      "stateMutability": "view",
      "type": "function"
    },
    {
      "inputs": [
        {
          "internalType": "address",
          "name": "from",
          "type": "address"
        },
        {
          "internalType": "address",
          "name": "to",
          "type": "address"
        },
        {
          "internalType": "uint256",
          "name": "tokenId",
          "type": "uint256"
        }
      ],
      "name": "safeTransferFrom",
      "outputs": [],
      "stateMutability": "nonpayable",
      "type": "function"
    },
    {
      "inputs": [
        {
          "internalType": "address",
          "name": "from",
          "type": "address"
        },
        {
          "internalType": "address",
          "name": "to",
          "type": "address"
        },
        {
          "internalType": "uint256",
          "name": "tokenId",
          "type": "uint256"
        },
        {
          "internalType": "bytes",
          "name": "data",
          "type": "bytes"
        }
      ],
      "name": "safeTransferFrom",
      "outputs": [],
      "stateMutability": "nonpayable",
      "type": "function"
    },
    {
      "inputs": [
        {
          "internalType": "address",
          "name": "operator",
          "type": "address"
        },
        {
          "internalType": "bool",
          "name": "approved",
          "type": "bool"
        }
      ],
      "name": "setApprovalForAll",
      "outputs": [],
      "stateMutability": "nonpayable",
      "type": "function"
    },
    {
      "inputs": [
        {
          "internalType": "address",
          "name": "_beneficiary",
          "type": "address"
        }
      ],
      "name": "setBeneficiary",
      "outputs": [],
      "stateMutability": "nonpayable",
      "type": "function"
    },
    {
      "inputs": [
        {
          "internalType": "uint256",
          "name": "_drawPeriod",
          "type": "uint256"
        }
      ],
      "name": "setDrawPeriod",
      "outputs": [],
      "stateMutability": "nonpayable",
      "type": "function"
    },
    {
      "inputs": [
        {
          "internalType": "uint256",
          "name": "_minStake",
          "type": "uint256"
        }
      ],
      "name": "setMinStake",
      "outputs": [],
      "stateMutability": "nonpayable",
      "type": "function"
    },
    {
      "inputs": [
        {
          "internalType": "address",
          "name": "_owner",
          "type": "address"
        }
      ],
      "name": "setOwner",
      "outputs": [],
      "stateMutability": "nonpayable",
      "type": "function"
    },
    {
      "inputs": [
        {
          "internalType": "uint256",
          "name": "_prizeFee",
          "type": "uint256"
        }
      ],
      "name": "setPrizeFee",
      "outputs": [],
      "stateMutability": "nonpayable",
      "type": "function"
    },
    {
      "inputs": [
        {
          "internalType": "uint256[]",
          "name": "_prizeSchedule",
          "type": "uint256[]"
        }
      ],
      "name": "setPrizeSchedule",
      "outputs": [],
      "stateMutability": "nonpayable",
      "type": "function"
    },
    {
      "inputs": [
        {
          "internalType": "address",
          "name": "_stakingHelper",
          "type": "address"
        }
      ],
      "name": "setStakingHelper",
      "outputs": [],
      "stateMutability": "nonpayable",
      "type": "function"
    },
    {
      "inputs": [
        {
          "internalType": "uint256",
          "name": "_undelegationPeriod",
          "type": "uint256"
        }
      ],
      "name": "setUndelegationPeriod",
      "outputs": [],
      "stateMutability": "nonpayable",
      "type": "function"
    },
    {
      "inputs": [],
      "name": "stakingHelper",
      "outputs": [
        {
          "internalType": "address",
          "name": "",
          "type": "address"
        }
      ],
      "stateMutability": "view",
      "type": "function"
    },
    {
      "inputs": [
        {
          "internalType": "bytes4",
          "name": "interfaceId",
          "type": "bytes4"
        }
      ],
      "name": "supportsInterface",
      "outputs": [
        {
          "internalType": "bool",
          "name": "",
          "type": "bool"
        }
      ],
      "stateMutability": "view",
      "type": "function"
    },
    {
      "inputs": [],
      "name": "symbol",
      "outputs": [
        {
          "internalType": "string",
          "name": "",
          "type": "string"
        }
      ],
      "stateMutability": "view",
      "type": "function"
    },
    {
      "inputs": [
        {
          "internalType": "uint256",
          "name": "_index",
          "type": "uint256"
        }
      ],
      "name": "tokenAtIndex",
      "outputs": [
        {
          "internalType": "uint256",
          "name": "",
          "type": "uint256"
        }
      ],
      "stateMutability": "view",
      "type": "function"
    },
    {
      "inputs": [
        {
          "internalType": "uint256",
          "name": "index",
          "type": "uint256"
        }
      ],
      "name": "tokenByIndex",
      "outputs": [
        {
          "internalType": "uint256",
          "name": "",
          "type": "uint256"
        }
      ],
      "stateMutability": "view",
      "type": "function"
    },
    {
      "inputs": [],
      "name": "tokenCounter",
      "outputs": [
        {
          "internalType": "uint256",
          "name": "",
          "type": "uint256"
        }
      ],
      "stateMutability": "view",
      "type": "function"
    },
    {
      "inputs": [
        {
          "internalType": "uint256",
          "name": "",
          "type": "uint256"
        }
      ],
      "name": "tokenIdToInfo",
      "outputs": [
        {
          "internalType": "uint256",
          "name": "staked",
          "type": "uint256"
        },
        {
          "internalType": "uint256",
          "name": "unstaked",
          "type": "uint256"
        },
        {
          "internalType": "uint256",
          "name": "withdrawEpoch",
          "type": "uint256"
        }
      ],
      "stateMutability": "view",
      "type": "function"
    },
    {
      "inputs": [
        {
          "internalType": "address",
          "name": "owner",
          "type": "address"
        },
        {
          "internalType": "uint256",
          "name": "index",
          "type": "uint256"
        }
      ],
      "name": "tokenOfOwnerByIndex",
      "outputs": [
        {
          "internalType": "uint256",
          "name": "",
          "type": "uint256"
        }
      ],
      "stateMutability": "view",
      "type": "function"
    },
    {
      "inputs": [
        {
          "internalType": "uint256",
          "name": "tokenId",
          "type": "uint256"
        }
      ],
      "name": "tokenURI",
      "outputs": [
        {
          "internalType": "string",
          "name": "",
          "type": "string"
        }
      ],
      "stateMutability": "view",
      "type": "function"
    },
    {
      "inputs": [],
      "name": "totalStaked",
      "outputs": [
        {
          "internalType": "uint256",
          "name": "",
          "type": "uint256"
        }
      ],
      "stateMutability": "view",
      "type": "function"
    },
    {
      "inputs": [],
      "name": "totalSupply",
      "outputs": [
        {
          "internalType": "uint256",
          "name": "",
          "type": "uint256"
        }
      ],
      "stateMutability": "view",
      "type": "function"
    },
    {
      "inputs": [
        {
          "internalType": "address",
          "name": "from",
          "type": "address"
        },
        {
          "internalType": "address",
          "name": "to",
          "type": "address"
        },
        {
          "internalType": "uint256",
          "name": "tokenId",
          "type": "uint256"
        }
      ],
      "name": "transferFrom",
      "outputs": [],
      "stateMutability": "nonpayable",
      "type": "function"
    },
    {
      "inputs": [],
      "name": "undelegationPeriod",
      "outputs": [
        {
          "internalType": "uint256",
          "name": "",
          "type": "uint256"
        }
      ],
      "stateMutability": "view",
      "type": "function"
    },
    {
      "inputs": [
        {
          "internalType": "address",
          "name": "_holder",
          "type": "address"
        },
        {
          "internalType": "uint256",
          "name": "_amount",
          "type": "uint256"
        },
        {
          "internalType": "uint256",
          "name": "_tokenId",
          "type": "uint256"
        }
      ],
      "name": "unstake",
      "outputs": [],
      "stateMutability": "nonpayable",
      "type": "function"
    },
    {
      "inputs": [
        {
          "internalType": "uint256",
          "name": "_tokenId",
          "type": "uint256"
        }
      ],
      "name": "withdraw",
      "outputs": [],
      "stateMutability": "nonpayable",
      "type": "function"
    },
    {
      "inputs": [],
      "name": "withdrawFees",
      "outputs": [],
      "stateMutability": "nonpayable",
      "type": "function"
    }
  ],
  "bytecode": "0x60806040526007600a5561012c60145568056bc75e2d631000006019553480156200002957600080fd5b5060405162003c8b38038062003c8b8339810160408190526200004c91620009fb565b6040518060400160405280601081526020016f53776565707374616b6573204e46547360801b8152506040518060400160405280600381526020016229a9a760e91b8152508160009081620000a2919062000bb6565b506001620000b1828262000bb6565b50506000600d81905560168054336001600160a01b031991821681179092556017805490911690911790556201437060105542601355601c805460ff191660011790556064600b5590505b84518110156200020257620001368582815181106200011f576200011f62000c82565b6020026020010151600d546200020d60201b60201c565b62000166600d5485838151811062000152576200015262000c82565b60200260200101516200023360201b60201c565b8281815181106200017b576200017b62000c82565b6020026020010151601d6000600d54815260200190815260200160002060010181905550818181518110620001b457620001b462000c82565b602090810291909101810151600d80546000908152601d9093526040832060020191909155805491620001e78362000cae565b91905055508080620001f99062000cae565b915050620000fc565b505050505062000e64565b6200022f828260405180602001604052806000815250620002b260201b60201c565b5050565b6000828152601d6020526040812080548392906200025390849062000cca565b9250508190555080600c6000600b54856200026f919062000ce6565b815260200190815260200160002060008282546200028e919062000cca565b9250508190555080600f6000828254620002a9919062000cca565b90915550505050565b620002be8383620002fa565b620002cd60008484846200043d565b620002f55760405162461bcd60e51b8152600401620002ec9062000d09565b60405180910390fd5b505050565b6001600160a01b038216620003525760405162461bcd60e51b815260206004820181905260248201527f4552433732313a206d696e7420746f20746865207a65726f20616464726573736044820152606401620002ec565b6000818152600260205260409020546001600160a01b0316156200038a5760405162461bcd60e51b8152600401620002ec9062000d5b565b6200039a60008383600162000560565b6000818152600260205260409020546001600160a01b031615620003d25760405162461bcd60e51b8152600401620002ec9062000d5b565b6001600160a01b038216600081815260036020908152604080832080546001019055848352600290915280822080546001600160a01b0319168417905551839291907fddf252ad1be2c89b69c2b068fc378daa952ba7f163c4a11628f55a4df523b3ef908290a45050565b60006200045e846001600160a01b0316620006ca60201b62001a041760201c565b156200055457604051630a85bd0160e11b81526001600160a01b0385169063150b7a02906200049890339089908890889060040162000d92565b6020604051808303816000875af1925050508015620004d6575060408051601f3d908101601f19168201909252620004d39181019062000e05565b60015b62000539573d80801562000507576040519150601f19603f3d011682016040523d82523d6000602084013e6200050c565b606091505b508051600003620005315760405162461bcd60e51b8152600401620002ec9062000d09565b805181602001fd5b6001600160e01b031916630a85bd0160e11b14905062000558565b5060015b949350505050565b6200057984848484620006c460201b6200165c1760201c565b6001811115620005f25760405162461bcd60e51b815260206004820152603560248201527f455243373231456e756d657261626c653a20636f6e736563757469766520747260448201527f616e7366657273206e6f7420737570706f7274656400000000000000000000006064820152608401620002ec565b816001600160a01b03851662000651576200064b81600880546000838152600960205260408120829055600182018355919091527ff3f7a9fe364faab93b216da50a3214154f22a0a2b415b23a84c8169e8b636ee30155565b62000677565b836001600160a01b0316856001600160a01b0316146200067757620006778582620006d9565b6001600160a01b0384166200069757620006918162000786565b620006bd565b846001600160a01b0316846001600160a01b031614620006bd57620006bd848262000840565b5050505050565b50505050565b6001600160a01b03163b151590565b60006001620006f3846200089160201b620010841760201c565b620006ff919062000e38565b60008381526007602052604090205490915080821462000753576001600160a01b03841660009081526006602090815260408083208584528252808320548484528184208190558352600790915290208190555b5060009182526007602090815260408084208490556001600160a01b039094168352600681528383209183525290812055565b6008546000906200079a9060019062000e38565b60008381526009602052604081205460088054939450909284908110620007c557620007c562000c82565b906000526020600020015490508060088381548110620007e957620007e962000c82565b600091825260208083209091019290925582815260099091526040808220849055858252812055600880548062000824576200082462000e4e565b6001900381819060005260206000200160009055905550505050565b600062000858836200089160201b620010841760201c565b6001600160a01b039093166000908152600660209081526040808320868452825280832085905593825260079052919091209190915550565b60006001600160a01b038216620008fd5760405162461bcd60e51b815260206004820152602960248201527f4552433732313a2061646472657373207a65726f206973206e6f7420612076616044820152683634b21037bbb732b960b91b6064820152608401620002ec565b506001600160a01b031660009081526003602052604090205490565b634e487b7160e01b600052604160045260246000fd5b604051601f8201601f191681016001600160401b03811182821017156200095a576200095a62000919565b604052919050565b60006001600160401b038211156200097e576200097e62000919565b5060051b60200190565b600082601f8301126200099a57600080fd5b81516020620009b3620009ad8362000962565b6200092f565b82815260059290921b84018101918181019086841115620009d357600080fd5b8286015b84811015620009f05780518352918301918301620009d7565b509695505050505050565b6000806000806080858703121562000a1257600080fd5b84516001600160401b038082111562000a2a57600080fd5b818701915087601f83011262000a3f57600080fd5b8151602062000a52620009ad8362000962565b82815260059290921b8401810191818101908b84111562000a7257600080fd5b948201945b8386101562000aa95785516001600160a01b038116811462000a995760008081fd5b8252948201949082019062000a77565b918a015191985090935050508082111562000ac357600080fd5b62000ad18883890162000988565b9450604087015191508082111562000ae857600080fd5b62000af68883890162000988565b9350606087015191508082111562000b0d57600080fd5b5062000b1c8782880162000988565b91505092959194509250565b600181811c9082168062000b3d57607f821691505b60208210810362000b5e57634e487b7160e01b600052602260045260246000fd5b50919050565b601f821115620002f557600081815260208120601f850160051c8101602086101562000b8d5750805b601f850160051c820191505b8181101562000bae5782815560010162000b99565b505050505050565b81516001600160401b0381111562000bd25762000bd262000919565b62000bea8162000be3845462000b28565b8462000b64565b602080601f83116001811462000c22576000841562000c095750858301515b600019600386901b1c1916600185901b17855562000bae565b600085815260208120601f198616915b8281101562000c535788860151825594840194600190910190840162000c32565b508582101562000c725787850151600019600388901b60f8161c191681555b5050505050600190811b01905550565b634e487b7160e01b600052603260045260246000fd5b634e487b7160e01b600052601160045260246000fd5b60006001820162000cc35762000cc362000c98565b5060010190565b8082018082111562000ce05762000ce062000c98565b92915050565b60008262000d0457634e487b7160e01b600052601260045260246000fd5b500490565b60208082526032908201527f4552433732313a207472616e7366657220746f206e6f6e20455243373231526560408201527131b2b4bb32b91034b6b83632b6b2b73a32b960711b606082015260800190565b6020808252601c908201527f4552433732313a20746f6b656e20616c7265616479206d696e74656400000000604082015260600190565b600060018060a01b038087168352602081871681850152856040850152608060608501528451915081608085015260005b8281101562000de15785810182015185820160a00152810162000dc3565b5050600060a0828501015260a0601f19601f83011684010191505095945050505050565b60006020828403121562000e1857600080fd5b81516001600160e01b03198116811462000e3157600080fd5b9392505050565b8181038181111562000ce05762000ce062000c98565b634e487b7160e01b600052603160045260246000fd5b612e178062000e746000396000f3fe608060405234801561001057600080fd5b506004361061025c5760003560e01c806301ffc9a71461026157806306fdde0314610289578063081812fc1461029e578063095ea7b3146102c95780630a986dbe146102de57806313af4035146102f157806318160ddd146103045780631c31f710146103165780631d7f64d9146103295780631f283fc21461033c578063226092001461034f57806323b872dd146103585780632e1a7d4d1461036b5780632f745c591461037e578063375b3c0a1461039157806338af3eed1461039a57806341f1afc7146103ad57806342842e0e146103c0578063476343ee146103d35780634f6ccce7146103db5780635c3e9cc2146103ee5780635cbbd6351461040e5780635e27d285146104175780636352211e1461042a57806363e163381461043d57806370a0823114610450578063719ce73e14610463578063746b24de1461046c57806377b818951461047f5780637e348b7d14610492578063817b1cd2146104a55780638c80fd90146104ae5780638da5cb5b146104c157806394490e9a146104d457806395d89b41146104dd5780639a40787e146104e5578063a22cb465146104f8578063a2bc66be1461050b578063b2185bb11461051e578063b88d4fde14610526578063c87b56dd14610539578063c87f4a061461054c578063c891178514610555578063d082e3811461055d578063dacc3cce14610566578063e846e7c014610573578063e985e9c51461057c578063f1b3fd621461058f578063f5962e2d14610598578063f9d0f91f146105ab578063fdd1f986146105be578063ff69ea90146105c7575b600080fd5b61027461026f36600461268e565b610611565b60405190151581526020015b60405180910390f35b61029161063c565b60405161028091906126fb565b6102b16102ac36600461270e565b6106ce565b6040516001600160a01b039091168152602001610280565b6102dc6102d7366004612743565b6106f5565b005b6102dc6102ec3660046127b3565b61080f565b6102dc6102ff366004612858565b61092a565b6008545b604051908152602001610280565b6102dc610324366004612858565b610976565b6102dc610337366004612858565b6109c2565b61030861034a36600461270e565b610a0e565b61030860155481565b6102dc610366366004612873565b610a2f565b6102dc61037936600461270e565b610a60565b61030861038c366004612743565b610c97565b61030860195481565b6017546102b1906001600160a01b031681565b6103086103bb36600461270e565b610d2d565b6102dc6103ce366004612873565b610ea2565b6102dc610ebd565b6103086103e936600461270e565b610f7e565b6103086103fc36600461270e565b600c6020526000908152604090205481565b61030860135481565b61030861042536600461270e565b611011565b6102b161043836600461270e565b611021565b6102dc61044b36600461270e565b611055565b61030861045e366004612858565b611084565b610308601b5481565b6102dc61047a3660046128af565b61110a565b6018546102b1906001600160a01b031681565b6102dc6104a0366004612743565b6111c5565b610308600f5481565b6102dc6104bc36600461270e565b6112ac565b6016546102b1906001600160a01b031681565b610308600b5481565b6102916112db565b6102dc6104f336600461270e565b6112ea565b6102dc6105063660046128e2565b611319565b6102dc6105193660046128af565b611324565b6102dc611538565b6102dc61053436600461291e565b61162a565b61029161054736600461270e565b611662565b61030860145481565b6102dc6116d6565b610308600d5481565b601c546102749060ff1681565b61030860105481565b61027461058a3660046129dd565b611988565b61030860125481565b6103086105a636600461270e565b6119b6565b6102dc6105b936600461270e565b6119d5565b610308600a5481565b6105f66105d536600461270e565b601d6020526000908152604090208054600182015460029092015490919083565b60408051938452602084019290925290820152606001610280565b60006001600160e01b0319821663780e9d6360e01b1480610636575061063682611a13565b92915050565b60606000805461064b90612a10565b80601f016020809104026020016040519081016040528092919081815260200182805461067790612a10565b80156106c45780601f10610699576101008083540402835291602001916106c4565b820191906000526020600020905b8154815290600101906020018083116106a757829003601f168201915b5050505050905090565b60006106d982611a63565b506000908152600460205260409020546001600160a01b031690565b600061070082611021565b9050806001600160a01b0316836001600160a01b0316036107725760405162461bcd60e51b815260206004820152602160248201527f4552433732313a20617070726f76616c20746f2063757272656e74206f776e656044820152603960f91b60648201526084015b60405180910390fd5b336001600160a01b038216148061078e575061078e8133611988565b6108005760405162461bcd60e51b815260206004820152603d60248201527f4552433732313a20617070726f76652063616c6c6572206973206e6f7420746f60448201527f6b656e206f776e6572206f7220617070726f76656420666f7220616c6c0000006064820152608401610769565b61080a8383611a8b565b505050565b6016546001600160a01b031633146108395760405162461bcd60e51b815260040161076990612a4a565b600081511161087e5760405162461bcd60e51b81526020600482015260116024820152704e6f207072697a65207363686564756c6560781b6044820152606401610769565b60005b815181101561091257606482828151811061089e5761089e612a6e565b602002602001015111156109005760405162461bcd60e51b815260206004820152602360248201527f43616e74206265206d6f7265207468616e2031303025206f66207072697a65706044820152621bdbdb60ea1b6064820152608401610769565b8061090a81612a9a565b915050610881565b5080516109269060119060208401906125fa565b5050565b6016546001600160a01b031633146109545760405162461bcd60e51b815260040161076990612a4a565b601680546001600160a01b0319166001600160a01b0392909216919091179055565b6016546001600160a01b031633146109a05760405162461bcd60e51b815260040161076990612a4a565b601780546001600160a01b0319166001600160a01b0392909216919091179055565b6016546001600160a01b031633146109ec5760405162461bcd60e51b815260040161076990612a4a565b601880546001600160a01b0319166001600160a01b0392909216919091179055565b600e8181548110610a1e57600080fd5b600091825260209091200154905081565b610a393382611af9565b610a555760405162461bcd60e51b815260040161076990612ab3565b61080a838383611b58565b601c54610100900460ff1615610aa85760405162461bcd60e51b815260206004820152600d60248201526c4e6f207265656e7472616e637960981b6044820152606401610769565b601c805461ff0019166101001790556018546040805163900cf0cf60e01b815290516001600160a01b039092169163900cf0cf916004808201926020929091908290030181865afa158015610b01573d6000803e3d6000fd5b505050506040513d601f19601f82011682018060405250810190610b259190612b00565b6000828152601d60205260409020600201541115610b935760405162461bcd60e51b815260206004820152602560248201527f4d757374207761697420756e74696c20756e64656c65676174696f6e20636f6d604482015264706c65746560d81b6064820152608401610769565b610b9d3382611af9565b610bb95760405162461bcd60e51b815260040161076990612b19565b6000818152601d6020526040812060018101805490839055600282018390559054909103610bea57610bea82611cb7565b601854604051631d9b063d60e31b81526001600160a01b039091169063ecd831e890610c1c9033908590600401612b48565b600060405180830381600087803b158015610c3657600080fd5b505af1158015610c4a573d6000803e3d6000fd5b50505050817f56ca301a9219608c91e7bcee90e083c19671d2cdcc96752c7af291cee5f9c8c882604051610c8091815260200190565b60405180910390a25050601c805461ff0019169055565b6000610ca283611084565b8210610d045760405162461bcd60e51b815260206004820152602b60248201527f455243373231456e756d657261626c653a206f776e657220696e646578206f7560448201526a74206f6620626f756e647360a81b6064820152608401610769565b506001600160a01b03919091166000908152600660209081526040808320938352929052205490565b6000600f548210610d755760405162461bcd60e51b8152602060048201526012602482015271496e646578206f7574206f662072616e676560701b6044820152606401610769565b6000805b600b54600d54610d899190612b77565b8111610e66576000818152600c60205260409020548490610daa9084612b8b565b1115610e39576000600b5482610dc09190612b9e565b90505b600b54610dd1836001612b8b565b610ddb9190612b9e565b811015610e37576000818152601d60205260409020548590610dfd9085612b8b565b10610e0a57949350505050565b6000818152601d6020526040902054610e239084612b8b565b925080610e2f81612a9a565b915050610dc3565b505b6000818152600c6020526040902054610e529083612b8b565b915080610e5e81612a9a565b915050610d79565b5060405162461bcd60e51b815260206004820152601060248201526f15da5b9b995c881b9bdd08199bdd5b9960821b6044820152606401610769565b61080a8383836040518060200160405280600081525061162a565b6017546001600160a01b03163314610f0a5760405162461bcd60e51b815260206004820152601060248201526f4f6e6c792062656e656669636961727960801b6044820152606401610769565b601580546000909155601854601754604051631d9b063d60e31b81526001600160a01b039283169263ecd831e892610f49929116908590600401612b48565b600060405180830381600087803b158015610f6357600080fd5b505af1158015610f77573d6000803e3d6000fd5b5050505050565b6000610f8960085490565b8210610fec5760405162461bcd60e51b815260206004820152602c60248201527f455243373231456e756d657261626c653a20676c6f62616c20696e646578206f60448201526b7574206f6620626f756e647360a01b6064820152608401610769565b60088281548110610fff57610fff612a6e565b90600052602060002001549050919050565b60118181548110610a1e57600080fd5b60008061102d83611d12565b90506001600160a01b0381166106365760405162461bcd60e51b815260040161076990612bb5565b6016546001600160a01b0316331461107f5760405162461bcd60e51b815260040161076990612a4a565b600a55565b60006001600160a01b0382166110ee5760405162461bcd60e51b815260206004820152602960248201527f4552433732313a2061646472657373207a65726f206973206e6f7420612076616044820152683634b21037bbb732b960b91b6064820152608401610769565b506001600160a01b031660009081526003602052604090205490565b6018546001600160a01b031633146111345760405162461bcd60e51b815260040161076990612be7565b6019548210156111565760405162461bcd60e51b815260040161076990612c0d565b6111608382611af9565b61117c5760405162461bcd60e51b815260040161076990612b19565b6111868183611d2d565b807fd4a5c7ae4a46d5c461c6ff68c62eaa769cf4622df3a057e8684b47237f33bbbb836040516111b891815260200190565b60405180910390a2505050565b6018546001600160a01b031633146111ef5760405162461bcd60e51b815260040161076990612be7565b6019548110156112115760405162461bcd60e51b815260040161076990612c0d565b600e546000901561127f57600e805461122c90600190612c2e565b8154811061123c5761123c612a6e565b90600052602060002001549050600e80548061125a5761125a612c41565b6001900381819060005260206000200160009055905561127a8382611da4565b61117c565b50600d5461128d8382611da4565b600d805490600061129d83612a9a565b91905055506111868183611d2d565b6016546001600160a01b031633146112d65760405162461bcd60e51b815260040161076990612a4a565b601955565b60606001805461064b90612a10565b6016546001600160a01b031633146113145760405162461bcd60e51b815260040161076990612a4a565b601055565b610926338383611dbe565b6018546001600160a01b0316331461134e5760405162461bcd60e51b815260040161076990612be7565b6000818152601d60205260409020548211156113ba5760405162461bcd60e51b815260206004820152602560248201527f43616e277420756e7374616b65206d6f7265207468616e20796f7527766520736044820152641d185ad95960da1b6064820152608401610769565b6113c48382611af9565b6113e05760405162461bcd60e51b815260040161076990612b19565b6000818152601d6020526040812080548492906113fe908490612c2e565b90915550506000818152601d602052604081206001018054849290611424908490612b8b565b9091555050600a546018546040805163900cf0cf60e01b815290516001600160a01b039092169163900cf0cf916004808201926020929091908290030181865afa158015611476573d6000803e3d6000fd5b505050506040513d601f19601f8201168201806040525081019061149a9190612b00565b6114a49190612b8b565b6000828152601d6020526040812060020191909155600b548391600c916114cb9085612b77565b815260200190815260200160002060008282546114e89190612c2e565b9250508190555081600f60008282546115019190612c2e565b909155505060405182815281907f9045c2ac9b2026de8075f2701bbdde882cd5e830b3b1ead9a15b22f2b5b93742906020016111b8565b6010546013546115489190612b8b565b42116115815760405162461bcd60e51b81526020600482015260086024820152672a37b79039b7b7b760c11b6044820152606401610769565b601c5460ff1615156001146115cd5760405162461bcd60e51b8152602060048201526012602482015271141c9a5e99481b9bdd08185cdcda59db995960721b6044820152606401610769565b6001600f546115dc9190612c2e565b6115e4611e88565b6115ee9190612c57565b601a5542601355601c805460ff191690556040517f11dca21ead25a016a967ad0b46b9935a8390b4b41be67cdee1ce576250e6d49990600090a1565b6116343383611af9565b6116505760405162461bcd60e51b815260040161076990612ab3565b61165c84848484611eb0565b50505050565b606061166d82611a63565b600061168460408051602081019091526000815290565b905060008151116116a457604051806020016040528060008152506116cf565b806116ae84611ee3565b6040516020016116bf929190612c6b565b6040516020818303038152906040525b9392505050565b601c5460ff16156116e657600080fd5b601c805460ff19166001179055601354421161173e5760405162461bcd60e51b815260206004820152601760248201527663616e277420657865637574652077697468206472617760481b6044820152606401610769565b601860009054906101000a90046001600160a01b03166001600160a01b031663e52253816040518163ffffffff1660e01b81526004016020604051808303816000875af1158015611793573d6000803e3d6000fd5b505050506040513d601f19601f820116820180604052508101906117b79190612b00565b601b60008282546117c89190612b8b565b9091555050600f546117dc90600190612c2e565b601a541115611805576001600f546117f49190612c2e565b601a546118019190612c57565b601a555b6000606460116012548154811061181e5761181e612a6e565b9060005260206000200154601b546118369190612b9e565b6118409190612b77565b905080601b60008282546118549190612c2e565b90915550506014546000906127109061186d9084612b9e565b6118779190612b77565b60115490915061188990600190612c2e565b60125410156118ac57601280549060006118a283612a9a565b91905055506118b2565b60006012555b80601560008282546118c49190612b8b565b909155506118d490508183612c2e565b915060006118e3601a54610d2d565b90506118ef8184611d2d565b6018546040516315c9d3d360e31b8152600481018590526001600160a01b039091169063ae4e9e9890602401600060405180830381600087803b15801561193557600080fd5b505af1158015611949573d6000803e3d6000fd5b5050601a5460408051918252602082018790528493507f4cb2486ce1957771d0897dc9c91c5b155ff8fa1c6ca829a8ab8b9ce9af89d1869250016111b8565b6001600160a01b03918216600090815260056020908152604080832093909416825291909152205460ff1690565b6000818152601d60205260408120600181015490546106369190612b8b565b6016546001600160a01b031633146119ff5760405162461bcd60e51b815260040161076990612a4a565b601455565b6001600160a01b03163b151590565b60006001600160e01b031982166380ac58cd60e01b1480611a4457506001600160e01b03198216635b5e139f60e01b145b8061063657506301ffc9a760e01b6001600160e01b0319831614610636565b611a6c81611f75565b611a885760405162461bcd60e51b815260040161076990612bb5565b50565b600081815260046020526040902080546001600160a01b0319166001600160a01b0384169081179091558190611ac082611021565b6001600160a01b03167f8c5be1e5ebec7d5bd14f71427d1e84f3dd0314c0f7b2291e5b200ac8c7c3b92560405160405180910390a45050565b600080611b0583611021565b9050806001600160a01b0316846001600160a01b03161480611b2c5750611b2c8185611988565b80611b505750836001600160a01b0316611b45846106ce565b6001600160a01b0316145b949350505050565b826001600160a01b0316611b6b82611021565b6001600160a01b031614611b915760405162461bcd60e51b815260040161076990612c9a565b6001600160a01b038216611bf35760405162461bcd60e51b8152602060048201526024808201527f4552433732313a207472616e7366657220746f20746865207a65726f206164646044820152637265737360e01b6064820152608401610769565b611c008383836001611f92565b826001600160a01b0316611c1382611021565b6001600160a01b031614611c395760405162461bcd60e51b815260040161076990612c9a565b600081815260046020908152604080832080546001600160a01b03199081169091556001600160a01b038781168086526003855283862080546000190190559087168086528386208054600101905586865260029094528285208054909216841790915590518493600080516020612dc283398151915291a4505050565b611cc0816120bf565b6000818152601d6020526040812081815560018082018390556002909101829055600e805491820181559091527fbb7b4a454dc3493923482f07822329ed19e8244eff582cc204f8554c3620c3fd0155565b6000908152600260205260409020546001600160a01b031690565b6000828152601d602052604081208054839290611d4b908490612b8b565b9250508190555080600c6000600b5485611d659190612b77565b81526020019081526020016000206000828254611d829190612b8b565b9250508190555080600f6000828254611d9b9190612b8b565b90915550505050565b610926828260405180602001604052806000815250612150565b816001600160a01b0316836001600160a01b031603611e1b5760405162461bcd60e51b815260206004820152601960248201527822a9219b99189d1030b8383937bb32903a379031b0b63632b960391b6044820152606401610769565b6001600160a01b03838116600081815260056020908152604080832094871680845294825291829020805460ff191686151590811790915591519182527f17307eab39ab6107e8899845ad3d59bd9653f200f220920489ca2b5937696c31910160405180910390a3505050565b6000611e92612645565b438152604051602081818460ff600019fa611ea957fe5b5192915050565b611ebb848484611b58565b611ec784848484612183565b61165c5760405162461bcd60e51b815260040161076990612cdf565b60606000611ef08361228b565b60010190506000816001600160401b03811115611f0f57611f0f61276d565b6040519080825280601f01601f191660200182016040528015611f39576020820181803683370190505b5090508181016020015b600019016f181899199a1a9b1b9c1cb0b131b232b360811b600a86061a8153600a8504945084611f4357509392505050565b600080611f8183611d12565b6001600160a01b0316141592915050565b60018111156120015760405162461bcd60e51b815260206004820152603560248201527f455243373231456e756d657261626c653a20636f6e7365637574697665207472604482015274185b9cd9995c9cc81b9bdd081cdd5c1c1bdc9d1959605a1b6064820152608401610769565b816001600160a01b03851661205d5761205881600880546000838152600960205260408120829055600182018355919091527ff3f7a9fe364faab93b216da50a3214154f22a0a2b415b23a84c8169e8b636ee30155565b612080565b836001600160a01b0316856001600160a01b031614612080576120808582612361565b6001600160a01b03841661209c57612097816123fe565b610f77565b846001600160a01b0316846001600160a01b031614610f7757610f7784826124ad565b60006120ca82611021565b90506120da816000846001611f92565b6120e382611021565b600083815260046020908152604080832080546001600160a01b03199081169091556001600160a01b038516808552600384528285208054600019019055878552600290935281842080549091169055519293508492600080516020612dc2833981519152908390a45050565b61215a83836124f1565b6121676000848484612183565b61080a5760405162461bcd60e51b815260040161076990612cdf565b6000612197846001600160a01b0316611a04565b1561228057604051630a85bd0160e11b81526001600160a01b0385169063150b7a02906121ce903390899088908890600401612d31565b6020604051808303816000875af1925050508015612209575060408051601f3d908101601f1916820190925261220691810190612d6e565b60015b612266573d808015612237576040519150601f19603f3d011682016040523d82523d6000602084013e61223c565b606091505b50805160000361225e5760405162461bcd60e51b815260040161076990612cdf565b805181602001fd5b6001600160e01b031916630a85bd0160e11b149050611b50565b506001949350505050565b60008072184f03e93ff9f4daa797ed6e38ed64bf6a1f0160401b83106122ca5772184f03e93ff9f4daa797ed6e38ed64bf6a1f0160401b830492506040015b6904ee2d6d415b85acef8160201b83106122f4576904ee2d6d415b85acef8160201b830492506020015b662386f26fc10000831061231257662386f26fc10000830492506010015b6305f5e100831061232a576305f5e100830492506008015b612710831061233e57612710830492506004015b60648310612350576064830492506002015b600a83106106365760010192915050565b6000600161236e84611084565b6123789190612c2e565b6000838152600760205260409020549091508082146123cb576001600160a01b03841660009081526006602090815260408083208584528252808320548484528184208190558352600790915290208190555b5060009182526007602090815260408084208490556001600160a01b039094168352600681528383209183525290812055565b60085460009061241090600190612c2e565b6000838152600960205260408120546008805493945090928490811061243857612438612a6e565b90600052602060002001549050806008838154811061245957612459612a6e565b600091825260208083209091019290925582815260099091526040808220849055858252812055600880548061249157612491612c41565b6001900381819060005260206000200160009055905550505050565b60006124b883611084565b6001600160a01b039093166000908152600660209081526040808320868452825280832085905593825260079052919091209190915550565b6001600160a01b0382166125475760405162461bcd60e51b815260206004820181905260248201527f4552433732313a206d696e7420746f20746865207a65726f20616464726573736044820152606401610769565b61255081611f75565b1561256d5760405162461bcd60e51b815260040161076990612d8b565b61257b600083836001611f92565b61258481611f75565b156125a15760405162461bcd60e51b815260040161076990612d8b565b6001600160a01b038216600081815260036020908152604080832080546001019055848352600290915280822080546001600160a01b031916841790555183929190600080516020612dc2833981519152908290a45050565b828054828255906000526020600020908101928215612635579160200282015b8281111561263557825182559160200191906001019061261a565b50612641929150612663565b5090565b60405180602001604052806001906020820280368337509192915050565b5b808211156126415760008155600101612664565b6001600160e01b031981168114611a8857600080fd5b6000602082840312156126a057600080fd5b81356116cf81612678565b60005b838110156126c65781810151838201526020016126ae565b50506000910152565b600081518084526126e78160208601602086016126ab565b601f01601f19169290920160200192915050565b6020815260006116cf60208301846126cf565b60006020828403121561272057600080fd5b5035919050565b80356001600160a01b038116811461273e57600080fd5b919050565b6000806040838503121561275657600080fd5b61275f83612727565b946020939093013593505050565b634e487b7160e01b600052604160045260246000fd5b604051601f8201601f191681016001600160401b03811182821017156127ab576127ab61276d565b604052919050565b600060208083850312156127c657600080fd5b82356001600160401b03808211156127dd57600080fd5b818501915085601f8301126127f157600080fd5b8135818111156128035761280361276d565b8060051b9150612814848301612783565b818152918301840191848101908884111561282e57600080fd5b938501935b8385101561284c57843582529385019390850190612833565b98975050505050505050565b60006020828403121561286a57600080fd5b6116cf82612727565b60008060006060848603121561288857600080fd5b61289184612727565b925061289f60208501612727565b9150604084013590509250925092565b6000806000606084860312156128c457600080fd5b6128cd84612727565b95602085013595506040909401359392505050565b600080604083850312156128f557600080fd5b6128fe83612727565b91506020830135801515811461291357600080fd5b809150509250929050565b6000806000806080858703121561293457600080fd5b61293d85612727565b9350602061294c818701612727565b93506040860135925060608601356001600160401b038082111561296f57600080fd5b818801915088601f83011261298357600080fd5b8135818111156129955761299561276d565b6129a7601f8201601f19168501612783565b915080825289848285010111156129bd57600080fd5b808484018584013760008482840101525080935050505092959194509250565b600080604083850312156129f057600080fd5b6129f983612727565b9150612a0760208401612727565b90509250929050565b600181811c90821680612a2457607f821691505b602082108103612a4457634e487b7160e01b600052602260045260246000fd5b50919050565b6020808252600a908201526927b7363c9037bbb732b960b11b604082015260600190565b634e487b7160e01b600052603260045260246000fd5b634e487b7160e01b600052601160045260246000fd5b600060018201612aac57612aac612a84565b5060010190565b6020808252602d908201527f4552433732313a2063616c6c6572206973206e6f7420746f6b656e206f776e6560408201526c1c881bdc88185c1c1c9bdd9959609a1b606082015260800190565b600060208284031215612b1257600080fd5b5051919050565b602080825260159082015274139bdd081bdddb995c881bdc88185c1c1c9bdd9959605a1b604082015260600190565b6001600160a01b03929092168252602082015260400190565b634e487b7160e01b600052601260045260246000fd5b600082612b8657612b86612b61565b500490565b8082018082111561063657610636612a84565b808202811582820484141761063657610636612a84565b602080825260189082015277115490cdcc8c4e881a5b9d985b1a59081d1bdad95b88125160421b604082015260600190565b6020808252600c908201526b4f6e6c79207374616b696e6760a01b604082015260600190565b602080825260079082015266546f6f206c6f7760c81b604082015260600190565b8181038181111561063657610636612a84565b634e487b7160e01b600052603160045260246000fd5b600082612c6657612c66612b61565b500690565b60008351612c7d8184602088016126ab565b835190830190612c918183602088016126ab565b01949350505050565b60208082526025908201527f4552433732313a207472616e736665722066726f6d20696e636f72726563742060408201526437bbb732b960d91b606082015260800190565b60208082526032908201527f4552433732313a207472616e7366657220746f206e6f6e20455243373231526560408201527131b2b4bb32b91034b6b83632b6b2b73a32b960711b606082015260800190565b6001600160a01b0385811682528416602082015260408101839052608060608201819052600090612d64908301846126cf565b9695505050505050565b600060208284031215612d8057600080fd5b81516116cf81612678565b6020808252601c908201527b115490cdcc8c4e881d1bdad95b88185b1c9958591e481b5a5b9d195960221b60408201526060019056feddf252ad1be2c89b69c2b068fc378daa952ba7f163c4a11628f55a4df523b3efa2646970667358221220997ac7bfd662a8ee607edecfcb83c53673e071b855c3f2b41264340b87a1646f64736f6c63430008110033",
  "linkReferences": {},
  "deployedLinkReferences": {}
}