{
  "_format": "hh-sol-artifact-1",
  "contractName": "SweepStakesNFTs",
  "sourceName": "contracts/SweepStakes.sol",
  "abi": [
    {
      "inputs": [],
      "stateMutability": "nonpayable",
      "type": "constructor"
    },
    {
      "anonymous": false,
      "inputs": [
        {
          "indexed": true,
          "internalType": "address",
          "name": "owner",
          "type": "address"
        },
        {
          "indexed": true,
          "internalType": "address",
          "name": "approved",
          "type": "address"
        },
        {
          "indexed": true,
          "internalType": "uint256",
          "name": "tokenId",
          "type": "uint256"
        }
      ],
      "name": "Approval",
      "type": "event"
    },
    {
      "anonymous": false,
      "inputs": [
        {
          "indexed": true,
          "internalType": "address",
          "name": "owner",
          "type": "address"
        },
        {
          "indexed": true,
          "internalType": "address",
          "name": "operator",
          "type": "address"
        },
        {
          "indexed": false,
          "internalType": "bool",
          "name": "approved",
          "type": "bool"
        }
      ],
      "name": "ApprovalForAll",
      "type": "event"
    },
    {
      "anonymous": false,
      "inputs": [],
      "name": "DrawWinner",
      "type": "event"
    },
    {
      "anonymous": false,
      "inputs": [
        {
          "indexed": true,
          "internalType": "uint256",
          "name": "_tokenId",
          "type": "uint256"
        },
        {
          "indexed": false,
          "internalType": "uint256",
          "name": "_amount",
          "type": "uint256"
        }
      ],
      "name": "Enter",
      "type": "event"
    },
    {
      "anonymous": false,
      "inputs": [
        {
          "indexed": true,
          "internalType": "address",
          "name": "from",
          "type": "address"
        },
        {
          "indexed": true,
          "internalType": "address",
          "name": "to",
          "type": "address"
        },
        {
          "indexed": true,
          "internalType": "uint256",
          "name": "tokenId",
          "type": "uint256"
        }
      ],
      "name": "Transfer",
      "type": "event"
    },
    {
      "anonymous": false,
      "inputs": [
        {
          "indexed": true,
          "internalType": "uint256",
          "name": "_tokenId",
          "type": "uint256"
        },
        {
          "indexed": false,
          "internalType": "uint256",
          "name": "_amount",
          "type": "uint256"
        }
      ],
      "name": "Unstake",
      "type": "event"
    },
    {
      "anonymous": false,
      "inputs": [
        {
          "indexed": false,
          "internalType": "uint256",
          "name": "winningTicket",
          "type": "uint256"
        },
        {
          "indexed": true,
          "internalType": "uint256",
          "name": "_winner",
          "type": "uint256"
        },
        {
          "indexed": false,
          "internalType": "uint256",
          "name": "_amount",
          "type": "uint256"
        }
      ],
      "name": "WinnerAssigned",
      "type": "event"
    },
    {
      "anonymous": false,
      "inputs": [
        {
          "indexed": true,
          "internalType": "uint256",
          "name": "_tokenId",
          "type": "uint256"
        },
        {
          "indexed": false,
          "internalType": "uint256",
          "name": "_amount",
          "type": "uint256"
        }
      ],
      "name": "Withdraw",
      "type": "event"
    },
    {
      "inputs": [
        {
          "internalType": "address",
          "name": "_entrant",
          "type": "address"
        },
        {
          "internalType": "uint256",
          "name": "_amount",
          "type": "uint256"
        },
        {
          "internalType": "uint256",
          "name": "_tokenId",
          "type": "uint256"
        }
      ],
      "name": "addToToken",
      "outputs": [],
      "stateMutability": "nonpayable",
      "type": "function"
    },
    {
      "inputs": [
        {
          "internalType": "address",
          "name": "to",
          "type": "address"
        },
        {
          "internalType": "uint256",
          "name": "tokenId",
          "type": "uint256"
        }
      ],
      "name": "approve",
      "outputs": [],
      "stateMutability": "nonpayable",
      "type": "function"
    },
    {
      "inputs": [],
      "name": "assignPrize",
      "outputs": [],
      "stateMutability": "nonpayable",
      "type": "function"
    },
    {
      "inputs": [
        {
          "internalType": "uint256",
          "name": "",
          "type": "uint256"
        }
      ],
      "name": "availableTokenIds",
      "outputs": [
        {
          "internalType": "uint256",
          "name": "",
          "type": "uint256"
        }
      ],
      "stateMutability": "view",
      "type": "function"
    },
    {
      "inputs": [
        {
          "internalType": "address",
          "name": "owner",
          "type": "address"
        }
      ],
      "name": "balanceOf",
      "outputs": [
        {
          "internalType": "uint256",
          "name": "",
          "type": "uint256"
        }
      ],
      "stateMutability": "view",
      "type": "function"
    },
    {
      "inputs": [],
      "name": "beneficiary",
      "outputs": [
        {
          "internalType": "address",
          "name": "",
          "type": "address"
        }
      ],
      "stateMutability": "view",
      "type": "function"
    },
    {
      "inputs": [],
      "name": "drawPeriod",
      "outputs": [
        {
          "internalType": "uint256",
          "name": "",
          "type": "uint256"
        }
      ],
      "stateMutability": "view",
      "type": "function"
    },
    {
      "inputs": [],
      "name": "drawWinner",
      "outputs": [],
      "stateMutability": "nonpayable",
      "type": "function"
    },
    {
      "inputs": [
        {
          "internalType": "address",
          "name": "_entrant",
          "type": "address"
        },
        {
          "internalType": "uint256",
          "name": "_amount",
          "type": "uint256"
        }
      ],
      "name": "enter",
      "outputs": [],
      "stateMutability": "nonpayable",
      "type": "function"
    },
    {
      "inputs": [],
      "name": "feesToCollect",
      "outputs": [
        {
          "internalType": "uint256",
          "name": "",
          "type": "uint256"
        }
      ],
      "stateMutability": "view",
      "type": "function"
    },
    {
      "inputs": [
        {
          "internalType": "uint256",
          "name": "tokenId",
          "type": "uint256"
        }
      ],
      "name": "getApproved",
      "outputs": [
        {
          "internalType": "address",
          "name": "",
          "type": "address"
        }
      ],
      "stateMutability": "view",
      "type": "function"
    },
    {
      "inputs": [
        {
          "internalType": "uint256",
          "name": "_tokenId",
          "type": "uint256"
        }
      ],
      "name": "getNFTValue",
      "outputs": [
        {
          "internalType": "uint256",
          "name": "",
          "type": "uint256"
        }
      ],
      "stateMutability": "view",
      "type": "function"
    },
    {
      "inputs": [
        {
          "internalType": "address",
          "name": "owner",
          "type": "address"
        },
        {
          "internalType": "address",
          "name": "operator",
          "type": "address"
        }
      ],
      "name": "isApprovedForAll",
      "outputs": [
        {
          "internalType": "bool",
          "name": "",
          "type": "bool"
        }
      ],
      "stateMutability": "view",
      "type": "function"
    },
    {
      "inputs": [],
      "name": "lastDrawTime",
      "outputs": [
        {
          "internalType": "uint256",
          "name": "",
          "type": "uint256"
        }
      ],
      "stateMutability": "view",
      "type": "function"
    },
    {
      "inputs": [],
      "name": "lastPrize",
      "outputs": [
        {
          "internalType": "uint256",
          "name": "",
          "type": "uint256"
        }
      ],
      "stateMutability": "view",
      "type": "function"
    },
    {
      "inputs": [],
      "name": "minStake",
      "outputs": [
        {
          "internalType": "uint256",
          "name": "",
          "type": "uint256"
        }
      ],
      "stateMutability": "view",
      "type": "function"
    },
    {
      "inputs": [],
      "name": "name",
      "outputs": [
        {
          "internalType": "string",
          "name": "",
          "type": "string"
        }
      ],
      "stateMutability": "view",
      "type": "function"
    },
    {
      "inputs": [],
      "name": "owner",
      "outputs": [
        {
          "internalType": "address",
          "name": "",
          "type": "address"
        }
      ],
      "stateMutability": "view",
      "type": "function"
    },
    {
      "inputs": [
        {
          "internalType": "uint256",
          "name": "tokenId",
          "type": "uint256"
        }
      ],
      "name": "ownerOf",
      "outputs": [
        {
          "internalType": "address",
          "name": "",
          "type": "address"
        }
      ],
      "stateMutability": "view",
      "type": "function"
    },
    {
      "inputs": [],
      "name": "pageSize",
      "outputs": [
        {
          "internalType": "uint256",
          "name": "",
          "type": "uint256"
        }
      ],
      "stateMutability": "view",
      "type": "function"
    },
    {
      "inputs": [
        {
          "internalType": "uint256",
          "name": "",
          "type": "uint256"
        }
      ],
      "name": "pages",
      "outputs": [
        {
          "internalType": "uint256",
          "name": "",
          "type": "uint256"
        }
      ],
      "stateMutability": "view",
      "type": "function"
    },
    {
      "inputs": [],
      "name": "prizeAssigned",
      "outputs": [
        {
          "internalType": "bool",
          "name": "",
          "type": "bool"
        }
      ],
      "stateMutability": "view",
      "type": "function"
    },
    {
      "inputs": [],
      "name": "prizeFee",
      "outputs": [
        {
          "internalType": "uint256",
          "name": "",
          "type": "uint256"
        }
      ],
      "stateMutability": "view",
      "type": "function"
    },
    {
      "inputs": [
        {
          "internalType": "address",
          "name": "from",
          "type": "address"
        },
        {
          "internalType": "address",
          "name": "to",
          "type": "address"
        },
        {
          "internalType": "uint256",
          "name": "tokenId",
          "type": "uint256"
        }
      ],
      "name": "safeTransferFrom",
      "outputs": [],
      "stateMutability": "nonpayable",
      "type": "function"
    },
    {
      "inputs": [
        {
          "internalType": "address",
          "name": "from",
          "type": "address"
        },
        {
          "internalType": "address",
          "name": "to",
          "type": "address"
        },
        {
          "internalType": "uint256",
          "name": "tokenId",
          "type": "uint256"
        },
        {
          "internalType": "bytes",
          "name": "data",
          "type": "bytes"
        }
      ],
      "name": "safeTransferFrom",
      "outputs": [],
      "stateMutability": "nonpayable",
      "type": "function"
    },
    {
      "inputs": [
        {
          "internalType": "address",
          "name": "operator",
          "type": "address"
        },
        {
          "internalType": "bool",
          "name": "approved",
          "type": "bool"
        }
      ],
      "name": "setApprovalForAll",
      "outputs": [],
      "stateMutability": "nonpayable",
      "type": "function"
    },
    {
      "inputs": [
        {
          "internalType": "address",
          "name": "_beneficiary",
          "type": "address"
        }
      ],
      "name": "setBeneficiary",
      "outputs": [],
      "stateMutability": "nonpayable",
      "type": "function"
    },
    {
      "inputs": [
        {
          "internalType": "uint256",
          "name": "_drawPeriod",
          "type": "uint256"
        }
      ],
      "name": "setDrawPeriod",
      "outputs": [],
      "stateMutability": "nonpayable",
      "type": "function"
    },
    {
      "inputs": [
        {
          "internalType": "uint256",
          "name": "_minStake",
          "type": "uint256"
        }
      ],
      "name": "setMinStake",
      "outputs": [],
      "stateMutability": "nonpayable",
      "type": "function"
    },
    {
      "inputs": [
        {
          "internalType": "address",
          "name": "_owner",
          "type": "address"
        }
      ],
      "name": "setOwner",
      "outputs": [],
      "stateMutability": "nonpayable",
      "type": "function"
    },
    {
      "inputs": [
        {
          "internalType": "uint256",
          "name": "_prizeFee",
          "type": "uint256"
        }
      ],
      "name": "setPrizeFee",
      "outputs": [],
      "stateMutability": "nonpayable",
      "type": "function"
    },
    {
      "inputs": [
        {
          "internalType": "address",
          "name": "_stakingHelper",
          "type": "address"
        }
      ],
      "name": "setStakingHelper",
      "outputs": [],
      "stateMutability": "nonpayable",
      "type": "function"
    },
    {
      "inputs": [
        {
          "internalType": "uint256",
          "name": "_undelegationPeriod",
          "type": "uint256"
        }
      ],
      "name": "setUndelegationPeriod",
      "outputs": [],
      "stateMutability": "nonpayable",
      "type": "function"
    },
    {
      "inputs": [],
      "name": "stakingHelper",
      "outputs": [
        {
          "internalType": "address",
          "name": "",
          "type": "address"
        }
      ],
      "stateMutability": "view",
      "type": "function"
    },
    {
      "inputs": [
        {
          "internalType": "bytes4",
          "name": "interfaceId",
          "type": "bytes4"
        }
      ],
      "name": "supportsInterface",
      "outputs": [
        {
          "internalType": "bool",
          "name": "",
          "type": "bool"
        }
      ],
      "stateMutability": "view",
      "type": "function"
    },
    {
      "inputs": [],
      "name": "symbol",
      "outputs": [
        {
          "internalType": "string",
          "name": "",
          "type": "string"
        }
      ],
      "stateMutability": "view",
      "type": "function"
    },
    {
      "inputs": [
        {
          "internalType": "uint256",
          "name": "_index",
          "type": "uint256"
        }
      ],
      "name": "tokenAtIndex",
      "outputs": [
        {
          "internalType": "uint256",
          "name": "",
          "type": "uint256"
        }
      ],
      "stateMutability": "view",
      "type": "function"
    },
    {
      "inputs": [
        {
          "internalType": "uint256",
          "name": "index",
          "type": "uint256"
        }
      ],
      "name": "tokenByIndex",
      "outputs": [
        {
          "internalType": "uint256",
          "name": "",
          "type": "uint256"
        }
      ],
      "stateMutability": "view",
      "type": "function"
    },
    {
      "inputs": [],
      "name": "tokenCounter",
      "outputs": [
        {
          "internalType": "uint256",
          "name": "",
          "type": "uint256"
        }
      ],
      "stateMutability": "view",
      "type": "function"
    },
    {
      "inputs": [
        {
          "internalType": "uint256",
          "name": "",
          "type": "uint256"
        }
      ],
      "name": "tokenIdToInfo",
      "outputs": [
        {
          "internalType": "uint256",
          "name": "staked",
          "type": "uint256"
        },
        {
          "internalType": "uint256",
          "name": "unstaked",
          "type": "uint256"
        },
        {
          "internalType": "uint256",
          "name": "withdrawEpoch",
          "type": "uint256"
        }
      ],
      "stateMutability": "view",
      "type": "function"
    },
    {
      "inputs": [
        {
          "internalType": "address",
          "name": "owner",
          "type": "address"
        },
        {
          "internalType": "uint256",
          "name": "index",
          "type": "uint256"
        }
      ],
      "name": "tokenOfOwnerByIndex",
      "outputs": [
        {
          "internalType": "uint256",
          "name": "",
          "type": "uint256"
        }
      ],
      "stateMutability": "view",
      "type": "function"
    },
    {
      "inputs": [
        {
          "internalType": "uint256",
          "name": "tokenId",
          "type": "uint256"
        }
      ],
      "name": "tokenURI",
      "outputs": [
        {
          "internalType": "string",
          "name": "",
          "type": "string"
        }
      ],
      "stateMutability": "view",
      "type": "function"
    },
    {
      "inputs": [],
      "name": "totalStaked",
      "outputs": [
        {
          "internalType": "uint256",
          "name": "",
          "type": "uint256"
        }
      ],
      "stateMutability": "view",
      "type": "function"
    },
    {
      "inputs": [],
      "name": "totalSupply",
      "outputs": [
        {
          "internalType": "uint256",
          "name": "",
          "type": "uint256"
        }
      ],
      "stateMutability": "view",
      "type": "function"
    },
    {
      "inputs": [
        {
          "internalType": "address",
          "name": "from",
          "type": "address"
        },
        {
          "internalType": "address",
          "name": "to",
          "type": "address"
        },
        {
          "internalType": "uint256",
          "name": "tokenId",
          "type": "uint256"
        }
      ],
      "name": "transferFrom",
      "outputs": [],
      "stateMutability": "nonpayable",
      "type": "function"
    },
    {
      "inputs": [],
      "name": "undelegationPeriod",
      "outputs": [
        {
          "internalType": "uint256",
          "name": "",
          "type": "uint256"
        }
      ],
      "stateMutability": "view",
      "type": "function"
    },
    {
      "inputs": [
        {
          "internalType": "address",
          "name": "_holder",
          "type": "address"
        },
        {
          "internalType": "uint256",
          "name": "_amount",
          "type": "uint256"
        },
        {
          "internalType": "uint256",
          "name": "_tokenId",
          "type": "uint256"
        }
      ],
      "name": "unstake",
      "outputs": [],
      "stateMutability": "nonpayable",
      "type": "function"
    },
    {
      "inputs": [
        {
          "internalType": "uint256",
          "name": "_tokenId",
          "type": "uint256"
        }
      ],
      "name": "withdraw",
      "outputs": [],
      "stateMutability": "nonpayable",
      "type": "function"
    },
    {
      "inputs": [],
      "name": "withdrawFees",
      "outputs": [],
      "stateMutability": "nonpayable",
      "type": "function"
    }
  ],
  "bytecode": "0x60806040526007600a556101f460125568056bc75e2d631000006017553480156200002957600080fd5b506040518060400160405280601081526020016f53776565707374616b6573204e46547360801b8152506040518060400160405280600381526020016229a9a760e91b8152508160009081620000809190620001f8565b5060016200008f8282620001f8565b50506000600d81905560148054336001600160a01b0319918216811790925560158054909116821790556201518060105542601155601a805460ff191660011790556064600b556040519192503091620000e99062000145565b6001600160a01b03928316815291166020820152604001604051809103906000f0801580156200011d573d6000803e3d6000fd5b50601680546001600160a01b0319166001600160a01b039290921691909117905550620002c4565b6114638062002cf983390190565b634e487b7160e01b600052604160045260246000fd5b600181811c908216806200017e57607f821691505b6020821081036200019f57634e487b7160e01b600052602260045260246000fd5b50919050565b601f821115620001f357600081815260208120601f850160051c81016020861015620001ce5750805b601f850160051c820191505b81811015620001ef57828155600101620001da565b5050505b505050565b81516001600160401b0381111562000214576200021462000153565b6200022c8162000225845462000169565b84620001a5565b602080601f8311600181146200026457600084156200024b5750858301515b600019600386901b1c1916600185901b178555620001ef565b600085815260208120601f198616915b82811015620002955788860151825594840194600190910190840162000274565b5085821015620002b45787850151600019600388901b60f8161c191681555b5050505050600190811b01905550565b612a2580620002d46000396000f3fe608060405234801561001057600080fd5b506004361061023b5760003560e01c806301ffc9a71461024057806306fdde0314610268578063081812fc1461027d578063095ea7b3146102a857806313af4035146102bd57806318160ddd146102d05780631c31f710146102e25780631d7f64d9146102f55780631f283fc214610308578063226092001461031b57806323b872dd146103245780632e1a7d4d146103375780632f745c591461034a578063375b3c0a1461035d57806338af3eed1461036657806341f1afc71461037957806342842e0e1461038c578063476343ee1461039f5780634f6ccce7146103a75780635c3e9cc2146103ba5780635cbbd635146103da5780636352211e146103e357806363e16338146103f657806370a0823114610409578063746b24de1461041c57806377b818951461042f5780637e348b7d14610442578063817b1cd2146104555780638c80fd901461045e5780638da5cb5b1461047157806394490e9a1461048457806395d89b411461048d5780639a40787e146104955780639d400a0b146104a8578063a22cb465146104b1578063a2bc66be146104c4578063b2185bb1146104d7578063b88d4fde146104df578063c87b56dd146104f2578063c87f4a0614610505578063c89117851461050e578063d082e38114610516578063dacc3cce1461051f578063e846e7c01461052c578063e985e9c514610535578063f5962e2d14610548578063f9d0f91f1461055b578063fdd1f9861461056e578063ff69ea9014610577575b600080fd5b61025361024e366004612355565b6105c1565b60405190151581526020015b60405180910390f35b6102706105ec565b60405161025f91906123c2565b61029061028b3660046123d5565b61067e565b6040516001600160a01b03909116815260200161025f565b6102bb6102b636600461240a565b6106a5565b005b6102bb6102cb366004612434565b6107bf565b6008545b60405190815260200161025f565b6102bb6102f0366004612434565b61080b565b6102bb610303366004612434565b610857565b6102d46103163660046123d5565b6108a3565b6102d460135481565b6102bb61033236600461244f565b6108c4565b6102bb6103453660046123d5565b6108f5565b6102d461035836600461240a565b610ad3565b6102d460175481565b601554610290906001600160a01b031681565b6102d46103873660046123d5565b610b69565b6102bb61039a36600461244f565b610cde565b6102bb610cf9565b6102d46103b53660046123d5565b610dba565b6102d46103c83660046123d5565b600c6020526000908152604090205481565b6102d460115481565b6102906103f13660046123d5565b610e4d565b6102bb6104043660046123d5565b610e81565b6102d4610417366004612434565b610eb0565b6102bb61042a36600461248b565b610f36565b601654610290906001600160a01b031681565b6102bb61045036600461240a565b610ff1565b6102d4600f5481565b6102bb61046c3660046123d5565b6110d8565b601454610290906001600160a01b031681565b6102d4600b5481565b610270611107565b6102bb6104a33660046123d5565b611116565b6102d460195481565b6102bb6104bf3660046124be565b611145565b6102bb6104d236600461248b565b611154565b6102bb611368565b6102bb6104ed366004612510565b6114a1565b6102706105003660046123d5565b6114d9565b6102d460125481565b6102bb61154d565b6102d4600d5481565b601a546102539060ff1681565b6102d460105481565b6102536105433660046125eb565b6116c5565b6102d46105563660046123d5565b6116f3565b6102bb6105693660046123d5565b611712565b6102d4600a5481565b6105a66105853660046123d5565b601b6020526000908152604090208054600182015460029092015490919083565b6040805193845260208401929092529082015260600161025f565b60006001600160e01b0319821663780e9d6360e01b14806105e657506105e682611741565b92915050565b6060600080546105fb9061261e565b80601f01602080910402602001604051908101604052809291908181526020018280546106279061261e565b80156106745780601f1061064957610100808354040283529160200191610674565b820191906000526020600020905b81548152906001019060200180831161065757829003601f168201915b5050505050905090565b600061068982611791565b506000908152600460205260409020546001600160a01b031690565b60006106b082610e4d565b9050806001600160a01b0316836001600160a01b0316036107225760405162461bcd60e51b815260206004820152602160248201527f4552433732313a20617070726f76616c20746f2063757272656e74206f776e656044820152603960f91b60648201526084015b60405180910390fd5b336001600160a01b038216148061073e575061073e81336116c5565b6107b05760405162461bcd60e51b815260206004820152603d60248201527f4552433732313a20617070726f76652063616c6c6572206973206e6f7420746f60448201527f6b656e206f776e6572206f7220617070726f76656420666f7220616c6c0000006064820152608401610719565b6107ba83836117b9565b505050565b6014546001600160a01b031633146107e95760405162461bcd60e51b815260040161071990612658565b601480546001600160a01b0319166001600160a01b0392909216919091179055565b6014546001600160a01b031633146108355760405162461bcd60e51b815260040161071990612658565b601580546001600160a01b0319166001600160a01b0392909216919091179055565b6014546001600160a01b031633146108815760405162461bcd60e51b815260040161071990612658565b601680546001600160a01b0319166001600160a01b0392909216919091179055565b600e81815481106108b357600080fd5b600091825260209091200154905081565b6108ce3382611827565b6108ea5760405162461bcd60e51b81526004016107199061267c565b6107ba838383611886565b601660009054906101000a90046001600160a01b03166001600160a01b031663900cf0cf6040518163ffffffff1660e01b8152600401602060405180830381865afa158015610948573d6000803e3d6000fd5b505050506040513d601f19601f8201168201806040525081019061096c91906126c9565b6000828152601b602052604090206002015411156109da5760405162461bcd60e51b815260206004820152602560248201527f4d757374207761697420756e74696c20756e64656c65676174696f6e20636f6d604482015264706c65746560d81b6064820152608401610719565b6109e43382611827565b610a005760405162461bcd60e51b8152600401610719906126e2565b6000818152601b6020526040812060018101805490839055600282018390559054909103610a3157610a31826119e5565b601654604051631d9b063d60e31b81526001600160a01b039091169063ecd831e890610a639033908590600401612711565b600060405180830381600087803b158015610a7d57600080fd5b505af1158015610a91573d6000803e3d6000fd5b50505050817f56ca301a9219608c91e7bcee90e083c19671d2cdcc96752c7af291cee5f9c8c882604051610ac791815260200190565b60405180910390a25050565b6000610ade83610eb0565b8210610b405760405162461bcd60e51b815260206004820152602b60248201527f455243373231456e756d657261626c653a206f776e657220696e646578206f7560448201526a74206f6620626f756e647360a81b6064820152608401610719565b506001600160a01b03919091166000908152600660209081526040808320938352929052205490565b6000600f548210610bb15760405162461bcd60e51b8152602060048201526012602482015271496e646578206f7574206f662072616e676560701b6044820152606401610719565b6000805b600b54600d54610bc59190612756565b8111610ca2576000818152600c60205260409020548490610be6908461276a565b1115610c75576000600b5482610bfc919061277d565b90505b600b54610c0d83600161276a565b610c17919061277d565b811015610c73576000818152601b60205260409020548590610c39908561276a565b10610c4657949350505050565b6000818152601b6020526040902054610c5f908461276a565b925080610c6b81612794565b915050610bff565b505b6000818152600c6020526040902054610c8e908361276a565b915080610c9a81612794565b915050610bb5565b5060405162461bcd60e51b815260206004820152601060248201526f15da5b9b995c881b9bdd08199bdd5b9960821b6044820152606401610719565b6107ba838383604051806020016040528060008152506114a1565b6015546001600160a01b03163314610d465760405162461bcd60e51b815260206004820152601060248201526f4f6e6c792062656e656669636961727960801b6044820152606401610719565b601380546000909155601654601554604051631d9b063d60e31b81526001600160a01b039283169263ecd831e892610d85929116908590600401612711565b600060405180830381600087803b158015610d9f57600080fd5b505af1158015610db3573d6000803e3d6000fd5b5050505050565b6000610dc560085490565b8210610e285760405162461bcd60e51b815260206004820152602c60248201527f455243373231456e756d657261626c653a20676c6f62616c20696e646578206f60448201526b7574206f6620626f756e647360a01b6064820152608401610719565b60088281548110610e3b57610e3b6127ad565b90600052602060002001549050919050565b600080610e5983611a40565b90506001600160a01b0381166105e65760405162461bcd60e51b8152600401610719906127c3565b6014546001600160a01b03163314610eab5760405162461bcd60e51b815260040161071990612658565b600a55565b60006001600160a01b038216610f1a5760405162461bcd60e51b815260206004820152602960248201527f4552433732313a2061646472657373207a65726f206973206e6f7420612076616044820152683634b21037bbb732b960b91b6064820152608401610719565b506001600160a01b031660009081526003602052604090205490565b6016546001600160a01b03163314610f605760405162461bcd60e51b8152600401610719906127f5565b601754821015610f825760405162461bcd60e51b81526004016107199061281b565b610f8c8382611827565b610fa85760405162461bcd60e51b8152600401610719906126e2565b610fb28183611a5b565b807fd4a5c7ae4a46d5c461c6ff68c62eaa769cf4622df3a057e8684b47237f33bbbb83604051610fe491815260200190565b60405180910390a2505050565b6016546001600160a01b0316331461101b5760405162461bcd60e51b8152600401610719906127f5565b60175481101561103d5760405162461bcd60e51b81526004016107199061281b565b600e54600090156110ab57600e80546110589060019061283c565b81548110611068576110686127ad565b90600052602060002001549050600e8054806110865761108661284f565b600190038181906000526020600020016000905590556110a68382611ad2565b610fa8565b50600d546110b98382611ad2565b600d80549060006110c983612794565b9190505550610fb28183611a5b565b6014546001600160a01b031633146111025760405162461bcd60e51b815260040161071990612658565b601755565b6060600180546105fb9061261e565b6014546001600160a01b031633146111405760405162461bcd60e51b815260040161071990612658565b601055565b611150338383611aec565b5050565b6016546001600160a01b0316331461117e5760405162461bcd60e51b8152600401610719906127f5565b6000818152601b60205260409020548211156111ea5760405162461bcd60e51b815260206004820152602560248201527f43616e277420756e7374616b65206d6f7265207468616e20796f7527766520736044820152641d185ad95960da1b6064820152608401610719565b6111f48382611827565b6112105760405162461bcd60e51b8152600401610719906126e2565b6000818152601b60205260408120805484929061122e90849061283c565b90915550506000818152601b60205260408120600101805484929061125490849061276a565b9091555050600a546016546040805163900cf0cf60e01b815290516001600160a01b039092169163900cf0cf916004808201926020929091908290030181865afa1580156112a6573d6000803e3d6000fd5b505050506040513d601f19601f820116820180604052508101906112ca91906126c9565b6112d4919061276a565b6000828152601b6020526040812060020191909155600b548391600c916112fb9085612756565b81526020019081526020016000206000828254611318919061283c565b9250508190555081600f6000828254611331919061283c565b909155505060405182815281907f9045c2ac9b2026de8075f2701bbdde882cd5e830b3b1ead9a15b22f2b5b9374290602001610fe4565b601054601154611378919061276a565b42116113b15760405162461bcd60e51b81526020600482015260086024820152672a37b79039b7b7b760c11b6044820152606401610719565b601a5460ff166113c3576113c361154d565b60006001600f546113d4919061283c565b6113dc611bb6565b6113e69190612865565b90506113f181610b69565b6018556016546040805163e522538160e01b815290516001600160a01b039092169163e52253819160048082019260209290919082900301816000875af1158015611440573d6000803e3d6000fd5b505050506040513d601f19601f8201168201806040525081019061146491906126c9565b60195542601155601a805460ff191690556040517f11dca21ead25a016a967ad0b46b9935a8390b4b41be67cdee1ce576250e6d49990600090a150565b6114ab3383611827565b6114c75760405162461bcd60e51b81526004016107199061267c565b6114d384848484611bde565b50505050565b60606114e482611791565b60006114fb60408051602081019091526000815290565b9050600081511161151b5760405180602001604052806000815250611546565b8061152584611c11565b604051602001611536929190612879565b6040516020818303038152906040525b9392505050565b601a5460ff161561155d57600080fd5b601a805460ff1916600117905560115442116115b55760405162461bcd60e51b815260206004820152601760248201527663616e277420657865637574652077697468206472617760481b6044820152606401610719565b60006127106012546127106115ca919061283c565b6019546115d7919061277d565b6115e19190612756565b90506127106012546019546115f6919061277d565b6116009190612756565b60136000828254611611919061276a565b909155505060006019556018546116289082611a5b565b6016546040516315c9d3d360e31b8152600481018390526001600160a01b039091169063ae4e9e9890602401600060405180830381600087803b15801561166e57600080fd5b505af1158015611682573d6000803e3d6000fd5b505050506018547fc1e9be153b9c74415d87a173ecca43be5dc95c8cba5dcacec1a36a141bf03a29826040516116ba91815260200190565b60405180910390a250565b6001600160a01b03918216600090815260056020908152604080832093909416825291909152205460ff1690565b6000818152601b60205260408120600181015490546105e6919061276a565b6014546001600160a01b0316331461173c5760405162461bcd60e51b815260040161071990612658565b601255565b60006001600160e01b031982166380ac58cd60e01b148061177257506001600160e01b03198216635b5e139f60e01b145b806105e657506301ffc9a760e01b6001600160e01b03198316146105e6565b61179a81611ca3565b6117b65760405162461bcd60e51b8152600401610719906127c3565b50565b600081815260046020526040902080546001600160a01b0319166001600160a01b03841690811790915581906117ee82610e4d565b6001600160a01b03167f8c5be1e5ebec7d5bd14f71427d1e84f3dd0314c0f7b2291e5b200ac8c7c3b92560405160405180910390a45050565b60008061183383610e4d565b9050806001600160a01b0316846001600160a01b0316148061185a575061185a81856116c5565b8061187e5750836001600160a01b03166118738461067e565b6001600160a01b0316145b949350505050565b826001600160a01b031661189982610e4d565b6001600160a01b0316146118bf5760405162461bcd60e51b8152600401610719906128a8565b6001600160a01b0382166119215760405162461bcd60e51b8152602060048201526024808201527f4552433732313a207472616e7366657220746f20746865207a65726f206164646044820152637265737360e01b6064820152608401610719565b61192e8383836001611cc0565b826001600160a01b031661194182610e4d565b6001600160a01b0316146119675760405162461bcd60e51b8152600401610719906128a8565b600081815260046020908152604080832080546001600160a01b03199081169091556001600160a01b0387811680865260038552838620805460001901905590871680865283862080546001019055868652600290945282852080549092168417909155905184936000805160206129d083398151915291a4505050565b6119ee81611ded565b6000818152601b6020526040812081815560018082018390556002909101829055600e805491820181559091527fbb7b4a454dc3493923482f07822329ed19e8244eff582cc204f8554c3620c3fd0155565b6000908152600260205260409020546001600160a01b031690565b6000828152601b602052604081208054839290611a7990849061276a565b9250508190555080600c6000600b5485611a939190612756565b81526020019081526020016000206000828254611ab0919061276a565b9250508190555080600f6000828254611ac9919061276a565b90915550505050565b611150828260405180602001604052806000815250611e7e565b816001600160a01b0316836001600160a01b031603611b495760405162461bcd60e51b815260206004820152601960248201527822a9219b99189d1030b8383937bb32903a379031b0b63632b960391b6044820152606401610719565b6001600160a01b03838116600081815260056020908152604080832094871680845294825291829020805460ff191686151590811790915591519182527f17307eab39ab6107e8899845ad3d59bd9653f200f220920489ca2b5937696c31910160405180910390a3505050565b6000611bc0612321565b438152604051602081818460ff600019fa611bd757fe5b5192915050565b611be9848484611886565b611bf584848484611eb1565b6114d35760405162461bcd60e51b8152600401610719906128ed565b60606000611c1e83611fb2565b60010190506000816001600160401b03811115611c3d57611c3d6124fa565b6040519080825280601f01601f191660200182016040528015611c67576020820181803683370190505b5090508181016020015b600019016f181899199a1a9b1b9c1cb0b131b232b360811b600a86061a8153600a8504945084611c7157509392505050565b600080611caf83611a40565b6001600160a01b0316141592915050565b6001811115611d2f5760405162461bcd60e51b815260206004820152603560248201527f455243373231456e756d657261626c653a20636f6e7365637574697665207472604482015274185b9cd9995c9cc81b9bdd081cdd5c1c1bdc9d1959605a1b6064820152608401610719565b816001600160a01b038516611d8b57611d8681600880546000838152600960205260408120829055600182018355919091527ff3f7a9fe364faab93b216da50a3214154f22a0a2b415b23a84c8169e8b636ee30155565b611dae565b836001600160a01b0316856001600160a01b031614611dae57611dae8582612088565b6001600160a01b038416611dca57611dc581612125565b610db3565b846001600160a01b0316846001600160a01b031614610db357610db384826121d4565b6000611df882610e4d565b9050611e08816000846001611cc0565b611e1182610e4d565b600083815260046020908152604080832080546001600160a01b03199081169091556001600160a01b0385168085526003845282852080546000190190558785526002909352818420805490911690555192935084926000805160206129d0833981519152908390a45050565b611e888383612218565b611e956000848484611eb1565b6107ba5760405162461bcd60e51b8152600401610719906128ed565b60006001600160a01b0384163b15611fa757604051630a85bd0160e11b81526001600160a01b0385169063150b7a0290611ef590339089908890889060040161293f565b6020604051808303816000875af1925050508015611f30575060408051601f3d908101601f19168201909252611f2d9181019061297c565b60015b611f8d573d808015611f5e576040519150601f19603f3d011682016040523d82523d6000602084013e611f63565b606091505b508051600003611f855760405162461bcd60e51b8152600401610719906128ed565b805181602001fd5b6001600160e01b031916630a85bd0160e11b14905061187e565b506001949350505050565b60008072184f03e93ff9f4daa797ed6e38ed64bf6a1f0160401b8310611ff15772184f03e93ff9f4daa797ed6e38ed64bf6a1f0160401b830492506040015b6904ee2d6d415b85acef8160201b831061201b576904ee2d6d415b85acef8160201b830492506020015b662386f26fc10000831061203957662386f26fc10000830492506010015b6305f5e1008310612051576305f5e100830492506008015b612710831061206557612710830492506004015b60648310612077576064830492506002015b600a83106105e65760010192915050565b6000600161209584610eb0565b61209f919061283c565b6000838152600760205260409020549091508082146120f2576001600160a01b03841660009081526006602090815260408083208584528252808320548484528184208190558352600790915290208190555b5060009182526007602090815260408084208490556001600160a01b039094168352600681528383209183525290812055565b6008546000906121379060019061283c565b6000838152600960205260408120546008805493945090928490811061215f5761215f6127ad565b906000526020600020015490508060088381548110612180576121806127ad565b60009182526020808320909101929092558281526009909152604080822084905585825281205560088054806121b8576121b861284f565b6001900381819060005260206000200160009055905550505050565b60006121df83610eb0565b6001600160a01b039093166000908152600660209081526040808320868452825280832085905593825260079052919091209190915550565b6001600160a01b03821661226e5760405162461bcd60e51b815260206004820181905260248201527f4552433732313a206d696e7420746f20746865207a65726f20616464726573736044820152606401610719565b61227781611ca3565b156122945760405162461bcd60e51b815260040161071990612999565b6122a2600083836001611cc0565b6122ab81611ca3565b156122c85760405162461bcd60e51b815260040161071990612999565b6001600160a01b038216600081815260036020908152604080832080546001019055848352600290915280822080546001600160a01b0319168417905551839291906000805160206129d0833981519152908290a45050565b60405180602001604052806001906020820280368337509192915050565b6001600160e01b0319811681146117b657600080fd5b60006020828403121561236757600080fd5b81356115468161233f565b60005b8381101561238d578181015183820152602001612375565b50506000910152565b600081518084526123ae816020860160208601612372565b601f01601f19169290920160200192915050565b6020815260006115466020830184612396565b6000602082840312156123e757600080fd5b5035919050565b80356001600160a01b038116811461240557600080fd5b919050565b6000806040838503121561241d57600080fd5b612426836123ee565b946020939093013593505050565b60006020828403121561244657600080fd5b611546826123ee565b60008060006060848603121561246457600080fd5b61246d846123ee565b925061247b602085016123ee565b9150604084013590509250925092565b6000806000606084860312156124a057600080fd5b6124a9846123ee565b95602085013595506040909401359392505050565b600080604083850312156124d157600080fd5b6124da836123ee565b9150602083013580151581146124ef57600080fd5b809150509250929050565b634e487b7160e01b600052604160045260246000fd5b6000806000806080858703121561252657600080fd5b61252f856123ee565b935061253d602086016123ee565b92506040850135915060608501356001600160401b038082111561256057600080fd5b818701915087601f83011261257457600080fd5b813581811115612586576125866124fa565b604051601f8201601f19908116603f011681019083821181831017156125ae576125ae6124fa565b816040528281528a60208487010111156125c757600080fd5b82602086016020830137600060208483010152809550505050505092959194509250565b600080604083850312156125fe57600080fd5b612607836123ee565b9150612615602084016123ee565b90509250929050565b600181811c9082168061263257607f821691505b60208210810361265257634e487b7160e01b600052602260045260246000fd5b50919050565b6020808252600a908201526927b7363c9037bbb732b960b11b604082015260600190565b6020808252602d908201527f4552433732313a2063616c6c6572206973206e6f7420746f6b656e206f776e6560408201526c1c881bdc88185c1c1c9bdd9959609a1b606082015260800190565b6000602082840312156126db57600080fd5b5051919050565b602080825260159082015274139bdd081bdddb995c881bdc88185c1c1c9bdd9959605a1b604082015260600190565b6001600160a01b03929092168252602082015260400190565b634e487b7160e01b600052601260045260246000fd5b634e487b7160e01b600052601160045260246000fd5b6000826127655761276561272a565b500490565b808201808211156105e6576105e6612740565b80820281158282048414176105e6576105e6612740565b6000600182016127a6576127a6612740565b5060010190565b634e487b7160e01b600052603260045260246000fd5b602080825260189082015277115490cdcc8c4e881a5b9d985b1a59081d1bdad95b88125160421b604082015260600190565b6020808252600c908201526b4f6e6c79207374616b696e6760a01b604082015260600190565b602080825260079082015266546f6f206c6f7760c81b604082015260600190565b818103818111156105e6576105e6612740565b634e487b7160e01b600052603160045260246000fd5b6000826128745761287461272a565b500690565b6000835161288b818460208801612372565b83519083019061289f818360208801612372565b01949350505050565b60208082526025908201527f4552433732313a207472616e736665722066726f6d20696e636f72726563742060408201526437bbb732b960d91b606082015260800190565b60208082526032908201527f4552433732313a207472616e7366657220746f206e6f6e20455243373231526560408201527131b2b4bb32b91034b6b83632b6b2b73a32b960711b606082015260800190565b6001600160a01b038581168252841660208201526040810183905260806060820181905260009061297290830184612396565b9695505050505050565b60006020828403121561298e57600080fd5b81516115468161233f565b6020808252601c908201527b115490cdcc8c4e881d1bdad95b88185b1c9958591e481b5a5b9d195960221b60408201526060019056feddf252ad1be2c89b69c2b068fc378daa952ba7f163c4a11628f55a4df523b3efa264697066735822122068fb97606b43225d4c075d56dd5b3ee87c63413d9b7f522bebcbc0f0e84f6e8a64736f6c63430008110033608060405268056bc75e2d6310000060055534801561001d57600080fd5b5060405161146338038061146383398101604081905261003c9161008c565b600180546001600160a01b039283166001600160a01b031991821617909155600280549390921692169190911790556100bf565b80516001600160a01b038116811461008757600080fd5b919050565b6000806040838503121561009f57600080fd5b6100a883610070565b91506100b660208401610070565b90509250929050565b611395806100ce6000396000f3fe60806040526004361061011b5760003560e01c806302985992146101205780630d56ad631461014957806313af40351461016057806313c366671461018057806335aa2e44146101a05780635490b70a146101cd57806355888536146101ed5780635b2b030d1461020d57806364d93326146102155780637b6a58e814610235578063824be2f5146102485780638b616db81461025e5780638da5cb5b14610274578063900cf0cf146102945780639232521c146102a95780639300c926146102d65780639e2c8a5b146102f6578063a59f3e0c14610316578063ae4e9e9814610329578063cb11526d14610349578063dfea77a71461035f578063e522538114610375578063ecd831e81461038a578063facd743b146103aa575b600080fd5b34801561012c57600080fd5b5061013660055481565b6040519081526020015b60405180910390f35b34801561015557600080fd5b5061015e6103da565b005b34801561016c57600080fd5b5061015e61017b366004611053565b6104b5565b34801561018c57600080fd5b5061015e61019b366004611075565b610501565b3480156101ac57600080fd5b506101c06101bb366004611075565b610530565b604051610140919061108e565b3480156101d957600080fd5b5061015e6101e83660046110b8565b61055a565b3480156101f957600080fd5b506002546101c0906001600160a01b031681565b61015e610772565b34801561022157600080fd5b5061015e610230366004611053565b61078b565b61015e61024336600461117c565b6107d7565b34801561025457600080fd5b5061013660045481565b34801561026a57600080fd5b5061013660075481565b34801561028057600080fd5b506001546101c0906001600160a01b031681565b3480156102a057600080fd5b50610136610869565b3480156102b557600080fd5b506101366102c4366004611053565b60086020526000908152604090205481565b3480156102e257600080fd5b5061015e6102f13660046110b8565b61088b565b34801561030257600080fd5b5061015e61031136600461117c565b6108cc565b61015e610324366004611075565b610aac565b34801561033557600080fd5b5061015e610344366004611075565b610b3b565b34801561035557600080fd5b5061013660065481565b34801561036b57600080fd5b5061013660035481565b34801561038157600080fd5b50610136610b71565b34801561039657600080fd5b5061015e6103a536600461119e565b610c11565b3480156103b657600080fd5b506103ca6103c5366004611053565b610c76565b6040519015158152602001610140565b6000600654116104235760405162461bcd60e51b815260206004820152600f60248201526e4e6f7468696e6720746f206d6f766560881b60448201526064015b60405180910390fd5b60035461042e610869565b1161046e5760405162461bcd60e51b815260206004820152601060248201526f115c1bd8da081b9bdd081c185cdcd95960821b604482015260640161041a565b610479600654610cdf565b600060068190556040519081527ffe3a1b8697c9593595c052639ad5d680019519386a4a1577d98fabff195ef0619060200160405180910390a1565b6001546001600160a01b031633146104df5760405162461bcd60e51b815260040161041a906111c8565b600180546001600160a01b0319166001600160a01b0392909216919091179055565b6001546001600160a01b0316331461052b5760405162461bcd60e51b815260040161041a906111c8565b600555565b6000818154811061054057600080fd5b6000918252602090912001546001600160a01b0316905081565b6001546001600160a01b031633146105845760405162461bcd60e51b815260040161041a906111c8565b60008151116105cb5760405162461bcd60e51b81526020600482015260136024820152722737903b30b634b230ba37b9399033b4bb32b760691b604482015260640161041a565b6006541561060c5760405162461bcd60e51b815260206004820152600e60248201526d416c7265616479206d6f76696e6760901b604482015260640161041a565b60005b60005481101561071457600060086000808481548110610631576106316111ec565b60009182526020808320909101546001600160a01b0316835282019290925260400181205481549092506008908290819086908110610672576106726111ec565b60009182526020808320909101546001600160a01b0316835282019290925260400181209190915580546106cc9190849081106106b1576106b16111ec565b6000918252602090912001546001600160a01b031682610e11565b6106e85760405162461bcd60e51b815260040161041a90611202565b80600660008282546106fa9190611243565b9091555082915061070c90508161125c565b91505061060f565b5061071d610869565b6003558051610733906000906020840190610fbd565b507fea1ddd4ead2fe9774cbdf84d1f32d93ee6c3f52ced7fb65dae0d5ac5153adec960065460405161076791815260200190565b60405180910390a150565b34600760008282546107849190611243565b9091555050565b6001546001600160a01b031633146107b55760405162461bcd60e51b815260040161041a906111c8565b600280546001600160a01b0319166001600160a01b0392909216919091179055565b8134146107f65760405162461bcd60e51b815260040161041a90611275565b6107ff82610cdf565b600254604051633a35926f60e11b81526001600160a01b039091169063746b24de906108339033908690869060040161129b565b600060405180830381600087803b15801561084d57600080fd5b505af1158015610861573d6000803e3d6000fd5b505050505050565b600080600060405160208160208560fb600019fa61088357fe5b519392505050565b6001546001600160a01b031633146108b55760405162461bcd60e51b815260040161041a906111c8565b80516108c8906000906020840190610fbd565b5050565b6006541561092c5760405162461bcd60e51b815260206004820152602760248201527f43616e277420756e7374616b65207768696c65206368616e67696e672076616c604482015266696461746f727360c81b606482015260840161041a565b6004548290811115610a295760045461094590826112bc565b600060048190559091505b600054811015610a235761099860008281548110610970576109706111ec565b600091825260208220015490546001600160a01b039091169061099390856112cf565b610e11565b6109b45760405162461bcd60e51b815260040161041a90611202565b6000546109c190836112cf565b600860008084815481106109d7576109d76111ec565b60009182526020808320909101546001600160a01b0316835282019290925260400181208054909190610a0b9084906112bc565b90915550819050610a1b8161125c565b915050610950565b50610a41565b8060046000828254610a3b91906112bc565b90915550505b60025460405163515e335f60e11b81526001600160a01b039091169063a2bc66be90610a759033908790879060040161129b565b600060405180830381600087803b158015610a8f57600080fd5b505af1158015610aa3573d6000803e3d6000fd5b50505050505050565b803414610acb5760405162461bcd60e51b815260040161041a90611275565b610ad481610cdf565b600254604051637e348b7d60e01b8152336004820152602481018390526001600160a01b0390911690637e348b7d90604401600060405180830381600087803b158015610b2057600080fd5b505af1158015610b34573d6000803e3d6000fd5b5050505050565b6002546001600160a01b03163314610b655760405162461bcd60e51b815260040161041a906112f1565b610b6e81610cdf565b50565b6002546000906001600160a01b03163314610b9e5760405162461bcd60e51b815260040161041a906112f1565b6007544790610bad90826112bc565b60006007559050610bbc610e5a565b610c015760405162461bcd60e51b815260206004820152601660248201527510dbdb1b1958dd081c995dd85c991cc819985a5b195960521b604482015260640161041a565b610c0b81476112bc565b91505090565b6002546001600160a01b03163314610c3b5760405162461bcd60e51b815260040161041a906112f1565b6040516001600160a01b0383169082156108fc029083906000818181858888f19350505050158015610c71573d6000803e3d6000fd5b505050565b6000805b600054811015610cd657826001600160a01b031660008281548110610ca157610ca16111ec565b6000918252602090912001546001600160a01b031603610cc45750600192915050565b80610cce8161125c565b915050610c7a565b50600092915050565b600081600454610cef9190611243565b60055460005491925090610d0390836112cf565b1015610d0f5760045550565b60005b600054811015610e0757610d5a60008281548110610d3257610d326111ec565b600091825260208220015490546001600160a01b0390911690610d5590856112cf565b610e99565b610d985760405162461bcd60e51b815260206004820152600f60248201526e11195b1959d85d194819985a5b1959608a1b604482015260640161041a565b600054610da590836112cf565b60086000808481548110610dbb57610dbb6111ec565b60009182526020808320909101546001600160a01b0316835282019290925260400181208054909190610def908490611243565b90915550819050610dff8161125c565b915050610d12565b5060006004555050565b600080610e1e8484610ec3565b8015159250905060008051602061134083398151915260035b6040805160ff909216825284151560208301520160405180910390a15092915050565b600080610e65610f33565b6040805160048152821515602082018190529450919250600080516020611340833981519152910160405180910390a15090565b600080610ea68484610f9d565b801515925090506000805160206113408339815191526002610e37565b60008063bda8c0e960e01b308585604051602401610ee39392919061131b565b604051602081830303815290604052906001600160e01b0319166020820180516001600160e01b03838183161783525050505090506020604051825160208401600060fc6161a8f1949350505050565b600080636d6b2f7760e01b30604051602401610f4f919061108e565b604051602081830303815290604052906001600160e01b0319166020820180516001600160e01b03838183161783525050505090506020604051825160208401600060fc6161a8f191505090565b60008063510b11bb60e01b308585604051602401610ee39392919061131b565b828054828255906000526020600020908101928215611012579160200282015b8281111561101257825182546001600160a01b0319166001600160a01b03909116178255602090920191600190910190610fdd565b5061101e929150611022565b5090565b5b8082111561101e5760008155600101611023565b80356001600160a01b038116811461104e57600080fd5b919050565b60006020828403121561106557600080fd5b61106e82611037565b9392505050565b60006020828403121561108757600080fd5b5035919050565b6001600160a01b0391909116815260200190565b634e487b7160e01b600052604160045260246000fd5b600060208083850312156110cb57600080fd5b82356001600160401b03808211156110e257600080fd5b818501915085601f8301126110f657600080fd5b813581811115611108576111086110a2565b8060051b604051601f19603f8301168101818110858211171561112d5761112d6110a2565b60405291825284820192508381018501918883111561114b57600080fd5b938501935b828510156111705761116185611037565b84529385019392850192611150565b98975050505050505050565b6000806040838503121561118f57600080fd5b50508035926020909101359150565b600080604083850312156111b157600080fd5b6111ba83611037565b946020939093013593505050565b6020808252600a908201526927b7363c9037bbb732b960b11b604082015260600190565b634e487b7160e01b600052603260045260246000fd5b602080825260119082015270155b99195b1959d85d194819985a5b1959607a1b604082015260600190565b634e487b7160e01b600052601160045260246000fd5b808201808211156112565761125661122d565b92915050565b60006001820161126e5761126e61122d565b5060010190565b6020808252600c908201526b15dc9bdb99c8105b5bdd5b9d60a21b604082015260600190565b6001600160a01b039390931683526020830191909152604082015260600190565b818103818111156112565761125661122d565b6000826112ec57634e487b7160e01b600052601260045260246000fd5b500490565b60208082526010908201526f4f6e6c792073776565707374616b657360801b604082015260600190565b6001600160a01b03938416815291909216602082015260408101919091526060019056fe4ab3c6ec3a76761a1016662742d10350c318ec6aa3a21b6e14b25d906c89b9f9a26469706673582212209db8724dbdfe994800ed77f7b5372a805b36d8c6f5392d23399a9983f3b888e764736f6c63430008110033",
  "linkReferences": {},
  "deployedLinkReferences": {}
}